:020000040800F2
:10000000D80F002001010008131B0008A7130008E7
:10001000111B0008130200083B320008000000001A
:10002000000000000000000000000000D91D0008D2
:100030001502000800000000D71D0008DB1D0008A5
:100040001B0100081B0100081B0100081B01000820
:100050001B0100081B0100081B0100081B01000810
:100060001B0100081B0100081B0100081B01000800
:100070001B0100081B0100081B0100081B010008F0
:100080001B0100081B0100081B0100081B010008E0
:10009000C53100081B0100081B0100081B010008F6
:1000A0001B0100081B0100081B0100081B010008C0
:1000B0001B0100081B0100081B0100081B010008B0
:1000C0001B0100081B0100081B0100081B010008A0
:1000D0001B0100081B0100081B0100081B01000890
:1000E0001B0100081B0100081B010008DFF80CD0F1
:1000F00000F052F80048004709340008D80F0020EB
:100100000648804706480047FEE7FEE7FEE7FEE7B1
:10011000FEE7FEE7FEE7FEE7FEE7FEE7411E00081A
:10012000ED00000840EA01039B0703D009E008C97D
:10013000121F08C0042AFAD203E011F8013B00F8AC
:10014000013B521EF9D27047D2B201E000F8012BF8
:10015000491EFBD270470022F6E710B513460A4647
:1001600004461946FFF7F0FF204610BD30B50B4698
:10017000014600202022012409E021FA02F59D42D7
:1001800005D303FA02F5491B04FA02F52844151EAB
:10019000A2F10102F1DC30BD064C074D06E0E0683B
:1001A00040F0010394E8070098471034AC42F6D3BE
:1001B000FFF7A0FF9C360008BC36000870B58C180D
:1001C00010F8015B15F0070301D110F8013B2A116B
:1001D00006D110F8012B03E010F8016B01F8016B58
:1001E0005B1EF9D12B0705D40023521E0DD401F854
:1001F000013BFAE710F8013BCB1A921C03E013F81D
:10020000015B01F8015B521EF9D5A142D8D3002051
:1002100070BDFEE77047704770B5044600F008F9FE
:100220000546601C02D004480078044400F000F940
:10023000401BA042FAD370BD780100202DE9F84F91
:10024000DFF8B891002409F1040A0AF1040B2346EF
:100250000F270BF1040EC9E00125A5402A40AA4250
:100260007DD1674ED1F804C0ACEB0608B44532D05E
:1002700014DCBCF1030F3AD009DCBCF1000F2AD02A
:10028000BCF1010F1CD0BCF1020F31D11DE0BCF15B
:10029000110F17D0BCF1120F2AD119E0B8F5881F41
:1002A00019D006DCB8F5803F15D0B8F5801F1FD1F6
:1002B00011E0B8F5001F0ED0B8F5041F18D10AE000
:1002C000CB6815E0CB681B1D12E0CB6808330FE04C
:1002D000CB680C330CE08B682BB1012B4FF008037B
:1002E00003D0456104E0042302E0056100E000233F
:1002F000FF2A01D8064601E000F104064FEA840512
:1003000001D9A5F12005D6F8008007FA05FC28EAF6
:100310000C0803FA05F548EA0508C6F800804D68A0
:10032000ED0062D5374DAE6946F00106AE61AD69AC
:1003300024F0030605F001050095334D06EB050C8E
:10034000DCF80850A607360F07FA06F825EA080574
:10035000DFF8B880404503D14FF0000817E044E0D3
:10036000DFF8AC80404502D14FF001080FE0DFF824
:10037000A480404502D14FF0020808E0DFF89880E1
:10038000404502D14FF0030801E04FF0040808FA9D
:1003900006F848EA0508CCF808804D68D9F80060EE
:1003A000ED034D4601D5164300E096432E604D689F
:1003B000DAF80060AD03554601D5164300E09643D8
:1003C0002E604D68DBF80060ED025D4601D51643F6
:1003D00000E096432E604D68DEF80060AD02754681
:1003E00001D5164300E096432E60641C0D682A4632
:1003F000E5407FF431AFBDE8F88F00000004014014
:1004000000001110001002400000014000080140EF
:10041000000C0140001001400014014080680840B9
:1004200000D0012070470AB1016170470904FBE761
:100430000148806870470000780100200248816808
:10044000027811448160704778010020074810B598
:10045000016841F010010160032000F075F80020F0
:1004600000F006F800F024F8002010BD0020024043
:1004700070B50D4D04464FF47A712878B1FBF0F059
:100480000A490968B1FBF0F000F0E0FD48B9102C12
:1004900007D200222146501E00F036F800206C6082
:1004A00070BD012070BD0000780100208401002093
:1004B0000C4808B5816941F001018161816901F051
:1004C00001010091C16941F08051C161C06900F032
:1004D000805000900448416821F0E06141F00071D3
:1004E000416008BD0010024000000140002809DB07
:1004F00000F01F02012191404009800000F1E0203E
:10050000C0F8001170470000F0B40E4B1B680C4699
:10051000C3F30223C3F10705042D00D90425191DD7
:10052000072901D2002300E0DB1E012606FA05F1AF
:10053000491E214099409E40761E16403143F0BC32
:1005400002F08CBE0CED00E0064900F007020868DE
:100550004FF6FF03184040EA0220034A10430860A8
:10056000704700000CED00E00000FA0510B50C0625
:1005700005D501F0070100EB4110283003E000EB46
:10058000411000F5947099B232B1012202730181D9
:10059000190C4181002010BD00220273C180F9E7CF
:1005A000704700EB4112D0F86802D26B01F0A5BF92
:1005B00000EB4112D0F86802D2F83C2102F000B8FA
:1005C00070B504460B0601F0070004EB40114FF034
:1005D00001024FF0000503D581F82920283103E0FE
:1005E00081F8295101F59471087094F828020128C6
:1005F00008D084F82822206802F017FC84F82852DA
:10060000002070BD022070BD70B5044601F00F00DF
:100610006268904201D9012070BD0B0601F007000D
:1006200004EB40114FF001024FF0000503D581F8B3
:100630002920283103E081F8295101F594718D704A
:10064000087094F82802012808D084F8282220682D
:1006500002F08EFC84F82852002070BD022070BD8C
:100660002DE9F04104460F0601F0070004EB4011AC
:100670004FF001064FF0000503D581F829602831BD
:1006800003E081F8295101F5947108700A61CB707B
:100690004A7802B1C881022B00D10D7194F828026A
:1006A000012809D084F82862206802F089FA2846D7
:1006B00084F82852BDE8F0810220FBE770B50C46B3
:1006C00001F0070500EB4511C1E94F230022C1F8F5
:1006D000442181F8292181F8285101F5947162079C
:1006E000006802F09AFC002070BD70B504460D460B
:1006F00001F007006168884201D9012070BD290618
:100700004FF000064FF0010205D504EB401181F8CF
:100710002920283105E004EB451181F8296101F514
:1007200094718A70087094F82802012807D084F820
:100730002822206802F058FC680702D006E0022058
:1007400070BD04F50C71206802F010FC84F828627A
:10075000002070BD70B50C4601F0070500EB451197
:10076000C1E90F2300224A64012281F8292001F8FF
:10077000285F6207006802F050FC002070BD10B5D1
:100780000446006802F024FD000402D5204601F072
:10079000C1F9206802F01CFD40050CD5206830F836
:1007A000441F21F480610180204600F0FBF8002105
:1007B000204600F012F9206802F00AFD400405D539
:1007C000206830F8441F21F480410180206802F045
:1007D000FFFC800405D5206830F8441F21F4005147
:1007E0000180206802F0F4FCC00414D5206830F8C1
:1007F000401F21F004010180206830F8401F21F0E3
:1008000008010180204600F0E0F8206830F8441F1D
:1008100021F480510180206802F0DAFC00051FD528
:10082000206830F8401F41F008010180206830F84E
:10083000441F21F400610180206830F8401F41F01E
:1008400004010180206802F0C3FCC00405D52068C3
:1008500030F8441F21F480510180204600F0F2F866
:10086000206802F0B5FC800508D5206830F8441FE8
:1008700021F400710180204600F0ABF8206802F0FE
:10088000A7FCC00505D5206830F8441F21F480710D
:10089000018010BD2DE9F04186B0040004D094F829
:1008A0002902002520B108E0012006B0BDE8F08152
:1008B00084F82852204600F057F8032084F82902D3
:1008C000206802F04CFB04F11001142288466846AF
:1008D000FFF728FC94E80F0002F0A5FA0227B0BB4E
:1008E0000021206802F08EFC002001260DE000BFF0
:1008F00004EB401181F8296001F8280FC881CD7000
:100900000D614D61401CC0B28D6161688142EFD8BC
:1009100000200FE004EB401181F8295181F82801F3
:1009200081F82B51C1F83851C1F83C51401CC0B27C
:10093000C1F8405161688142ECD8142241466846B2
:10094000FFF7F0FB94E80F0002F0FAFA10B184F818
:100950002972A9E784F8245084F82962206802F0FB
:10096000EDFA0020A1E7000008B500680B498842B5
:1009700012D10B48C16941F40001C161C069002274
:1009800000F40000009011461420FFF7BDFDBDE803
:1009900008401420FFF7AABD08BD0000005C00401D
:1009A0000010024070B5044680680125022801D07D
:1009B000FFF731FC2946D4F8680201F0D8FED4F8DC
:1009C0006802BDE8704001F094BED0F8680201F002
:1009D000B8BED0F8680201F0BEBE10B5044690F86B
:1009E000280201280BD0012084F8280284F8241062
:1009F000206802F009FC002084F8280210BD0220C3
:100A000010BDD0F8682200F50C71104601F0BBBE95
:100A100010B5044690F82802012810D0012084F86F
:100A2000280201462046FFF7BBFD206802F084FA49
:100A3000206802F0C0FB002084F8280210BD0220CC
:100A400010BD000010B50446D0F8680201F0DAFECF
:100A5000A069002804D00348016841F00601016044
:100A600010BD000010ED00E02DE9F84305460078C8
:100A7000354CC00754D0E0690026C00008D4E069B6
:100A800040F08050E061E069012600F08050009065
:100A90002E480168C90512D40168804641F480716E
:100AA0000160FFF7C5FC074605E000BFFFF7C0FC8B
:100AB000C01B642823D8D8F80000C005F6D5206AEA
:100AC00010F4407021D0A98801F4407181421CD0FB
:100AD000206A1F49012220F440700A6000220A6047
:100AE0002062C00711D0FFF7A3FC074641F2883807
:100AF00008E000BFFFF79CFCC11B414502D9032061
:100B0000BDE8F883206A8007F4D5206A696820F47C
:100B10004070084320621EB1E06920F08050E0611F
:100B20002878800705D56068A96820F4404008430C
:100B300060602878C00605D56068E96820F4800008
:100B4000084360600020DBE70010024000700040B6
:100B5000400442422DE9F0470F46050061D0434E64
:100B6000306800F00700B84209D2306820F0070072
:100B700038433060306800F00700B84251D128682F
:100B80003B4C810712D5400703D5606840F4E06014
:100B900060602878000703D5606840F460506060AA
:100BA0006068A96820F0F000084360602878C007FA
:100BB00028D06868012810D02168022810D0890741
:100BC00000292EDA616821F0030101436160FFF71B
:100BD0002FFC804641F288390DE021688903EFE758
:100BE0008901EDE7FFF724FCA0EB0801494502D994
:100BF0000320BDE8F0876068696800F00C00B0EB86
:100C0000810FEFD1306800F00700B8420BD930688F
:100C100020F0070038433060306800F00700B84229
:100C200001D00120E5E72878400705D56068E9682C
:100C300020F4E060084360602878000706D560680B
:100C4000296920F4605040EAC100606000F038F883
:100C50006168084AC1F30311515CC8400649086045
:100C600006480068FFF704FC0020C2E700200240AD
:100C70000010024084360008840100207C0100201E
:100C80000448054900684968044AC1F30221515CDF
:100C9000C8407047840100200010024094360008CC
:100CA0000448054900684968044AC1F3C221515CFF
:100CB000C8407047840100200010024094360008AC
:100CC00012A185B00FC98DE80F0014A0144A006866
:100CD00004905168134801F00C03042B10D0082B2A
:100CE0000ED1C1F38343C9031DF803000AD551682F
:100CF00004AAC1F34041515C0A4A5043B0FBF1F0F1
:100D000005B0704708494843FAE7000002030405AC
:100D1000060708090A0B0C0D0E0F10100102000047
:100D20000010024000127A0000093D002DE9F84F42
:100D3000040070D02078C04DC00749D06868C0F367
:100D40008100012807D06868C0F38100022809D11A
:100D50006868C00306D52868800339D56068002814
:100D6000E7D035E06068B0F5803F0BD010B1B0F54A
:100D7000A02F11D0286820F480302860286820F443
:100D8000802002E0286840F480302860606890B1DC
:100D9000FFF74EFB06460AE0286840F480202860F2
:100DA000F0E700BFFFF744FB801B642873D8286876
:100DB0008003F7D50CE0FFF73BFB064605E000BFDC
:100DC000FFF736FB801B6428F0D828688003F7D42F
:100DD00020789A4E80074FF001094FF0000839D56E
:100DE000686810F00C0F07D06868C0F38100022813
:100DF00009D16868C00306D42868800714D5206923
:100E0000012808D110E02069B0B1C6F80090FFF7C2
:100E10000FFB074605E00AE1FFF70AFBC01B0228AB
:100E2000C4D828688007F7D52868616920F0F800E1
:100E300040EAC10028600DE0C6F80080FFF7F8FA2C
:100E4000074604E0FFF7F4FAC01B022823D82868FD
:100E50008007F7D4207800072CD57948A169D9B14B
:100E6000C0F80090FFF7E4FA074604E0FFF7E0FA65
:100E7000C01B02280FD8686A8007F7D571484FF465
:100E8000FA510068B0FBF1F0009000BF0098411EDD
:100E90000091FAD20EE080E0C0F80080FFF7C8FAB7
:100EA000074604E0FFF7C4FAC01B022875D8686A39
:100EB0008007F7D42078400760D5E8690027C00094
:100EC00008D4E86940F08050E861E869012700F043
:100ED000805000905C480168C90513D401688346BE
:100EE00041F480710160FFF7A3FA824606E000BF7B
:100EF000FFF79EFAA0EB0A0064284ED8DBF800004A
:100F0000C005F5D5E06801280AD008B1052813D03E
:100F1000286A20F001002862286A20F0040002E01C
:100F2000286A40F001002862E06841F2883B98B1ED
:100F3000FFF77EFA82460BE0286A40F00400286240
:100F4000EEE700BFFFF774FAA0EB0A0159455AD843
:100F5000286A8007F6D50CE0FFF76AFA824605E0BA
:100F6000FFF766FAA0EB0A0159454CD8286A8007BA
:100F7000F6D41FB1E86920F08050E861E06988B3D9
:100F80006968C1F38101022944D00228C6F8608053
:100F900004D0FFF74DFA044638E034E0FFF748FA92
:100FA000074604E0FFF744FAC01B02282BD8286844
:100FB0008001F7D4206AB0F5803F05D16868A16848
:100FC00020F4003008436860D4E9080108436968E8
:100FD00021F4741108436860C6F86090FFF728FA9E
:100FE000044606E025E000BFFFF722FA001B0228B6
:100FF00009D828688001F7D51BE000BFFFF718FA71
:10100000001B022802D90320BDE8F88F2868800160
:10101000F4D40EE00128F7D06868226A00F4803129
:10102000914204D1616A00F47010884201D001201D
:10103000EAE70020E8E7000000100240000042421A
:1010400080044242840100200070004010B5401E20
:10105000B0F1807F01D3012010BD4FF0E02460612A
:101060000F21601702F0FAF80020A061072020612C
:10107000002010BD70B590F83C20012A19D0012441
:1010800000F83C4F0222427050F83C3C5A689D6880
:1010900022F070060A684968324325F0800529432A
:1010A0005A6050F83C2C9160447000210170084651
:1010B00070BD022070BD10B5040003D094F83D004F
:1010C00010B107E0012010BD002084F83C0020464C
:1010D00000F00CF8022084F83D00211D206800F08B
:1010E000D3FE012084F83D00002010BD08B5124A4F
:1010F00001681248914207D1816941F40061816120
:10110000806900F4006014E0B1F1804F0AD00C4A0D
:1011100091420FD1C16941F00201C161C06900F083
:10112000020006E0C16941F00101C161C06900F03F
:101130000100009008BD0000002C0140001002409A
:101140000004004070B5044690F83C00012817D018
:10115000012584F83C50022084F83D002068826814
:1011600022F0770222F47F4282600868502830D053
:101170000DDC20284DD005DC98B310283BD148E089
:10118000022070BD302844D0402834D139E0602896
:1011900028D0702806D0B0F5805F2CD0B0F5005F65
:1011A00029D10AE0CB68D1E90121206800F0A2FE34
:1011B0002068816841F0770109E0CB68D1E901211D
:1011C000206800F097FE2068816841F480418160CA
:1011D00011E0CA684968206800F09EFE502120682E
:1011E00007E016E0CA684968206800F0A6FE6021A2
:1011F000206800F089FE84F83D50002084F83C000F
:1012000070BDCA684968206800F086FE40212068E9
:10121000EFE7226801461046EBE770B5040004D002
:1012200094F83900002510B106E0012070BD84F863
:101230003850204600F022F8242084F83900206835
:10124000C16821F40051C160204600F089FE206889
:10125000016921F4904101612068416921F02A016E
:1012600041612068C16841F40051C160E5632020FC
:1012700084F8390084F83A00002070BD30B585B09C
:101280000024009401940294039400681449884255
:1012900024D11448816941F480418161816901F45C
:1012A00080410491816941F00401816180690E4DA2
:1012B00000F0040004904FF40070009002200190B0
:1012C0000320039069462846FEF7B8FF2815CDE9AC
:1012D0000004694628460294FEF7B0FF05B030BD11
:1012E0000038014000100240000801402DE9F84399
:1012F000044690F839001F4616460D46202850D166
:10130000A5B19EB194F8380001284AD0012084F894
:1013100038004FF00008C4F83C80212084F83900E0
:10132000FFF786F8A6848146E68426E00120BDE822
:10133000F883E08C401EE084A0684B46B0F5805FE7
:101340004FF000024FF080012046009703D000F0DC
:1013500063FEE8B90DE000F05FFEC8B92888216897
:10136000C0F308004860206908B16D1C05E0AD1CA1
:1013700003E0216815F8010B4860E08C0028D8D103
:101380004B46002240212046009700F045FE08B160
:101390000320CCE7202084F8390084F8388000202E
:1013A000C5E70220C3E7FEE7F0B500230A24302595
:1013B00037261F4611E000BFB4EB107F02D905EBC2
:1013C000107C01E006EB107C01F813C001EB430C2C
:1013D00000015B1C8CF80170DBB29342ECD3F0BDD2
:1013E0000020054902460A54401CC0B20828FAD918
:1013F00002A001F023BF000017010020696E69748C
:1014000020636F6D706C6574650A000070B51D4CCB
:10141000206802F075F8226800201B4B117801E06B
:10142000401CC0B28142FBD8184C517881420CD983
:1014300002EB40010D79C97804EB8101695C5D78AC
:101440002943401C5970C0B2EFE7114E0221947835
:101450005578651B8C1EA5420FDD02EB4005EC782C
:10146000FF2C0AD02D7906EB8404401C2C5D5C54C3
:10147000491CC9B2C0B20829E9D3BDE8704002488E
:1014800001F0E6BF2401002017010020E400002045
:10149000D00000202DE9F047DFF88C90234F244E38
:1014A000D9F8040000244178817000BF06EBC40025
:1014B000804603C801F0C7FF002521E007EB840147
:1014C000294406EB4410497900EBC100416B006BE5
:1014D00001F0B6FF012811D12A46214615A001F0DE
:1014E000ADFED9F80400817800EB4101CC70817821
:1014F00000EB41010D718178491C81706D1CEDB2CA
:10150000385DA842DAD8D8E9000101F095FF641CE3
:10151000E4B2052CCAD3002189F80010BDE8F047D9
:1015200009A001F08BBE000020010020F80000207F
:101530000000002025642C2564207072657373659B
:101540006420646F776E0A007363616E20616B655F
:101550007920636F6D706C657465210A000000006E
:1015600070B50C4C01256068817841B10AA001F08A
:1015700065FE2570BDE8704009A001F05FBE4078AF
:1015800040420628F6D00BA001F058FE257000F06E
:101590003BF8EFE7200100206E6F20616E730A00B8
:1015A0007363616E20616E7320636F6D706C657420
:1015B000650A0000616E73206E6F7420656E6F7532
:1015C00067680A0010B50C4C0A4860600BA001F077
:1015D00035FE00206268FF2102EB4003401CD970F9
:1015E000C0B219718028F7D961680020087088702E
:1015F000487010BD8C02002020010020616E732015
:10160000696E697465640A0009480021FF22406818
:1016100006E000BF00EB4103491CDA701A71C9B241
:1016200083788B42F6D2002101708170417070473F
:10163000200100202DE9F041DFF87C8000210D46DB
:10164000D8F804001D4F1E4E01702DE006EB450436
:10165000607807EBC00003C801F0F5FE6078A17860
:1016600007EB401000EBC100416B006B01F0E8FE9E
:10167000012811D113A001F0E1FDD8F80400617830
:10168000027800EB4202D1700278A17800EB4202AE
:1016900011710178491C0170607807EBC00003C824
:1016A00001F0CAFE6D1CEDB23078A842CED8BDE87C
:1016B000F04109A001F0C2BD20010020000000207F
:1016C00011010020666B6579207072657373656423
:1016D00020646F776E0A00007363616E20666B652D
:1016E0007920636F6D706C657465210A00000000DD
:1016F00010B5FFF735FF0A48007801280BD1FFF736
:1017000099FF00F055F8FFF7C5FE00F00BF8FFF762
:101710007DFE00F0B3F8BDE810406420FEF77CBD0C
:10172000200100202DE9F0411B4D6868807870B3DE
:1017300000241A4F27E000BF00EB4400C07807EBFD
:10174000C006D6E9000101F07EFE686800EB4400A7
:10175000C178007907EB411101EBC000416B006BD0
:1017600001F06EFE012808D06968FF2001EB4401FA
:101770000871C870014601F069FFD6E9000101F067
:101780005BFE641CE4B268688178A142D4D8BDE8ED
:10179000F04103A001F052BD200100200000002014
:1017A000726D6A697420636F6D706C6574650A0090
:1017B0002DE9F0411E4800251E4F017841701E4E54
:1017C0002EE000BF06EB4504607807EBC00003C8BD
:1017D00001F039FE6078A17807EB401000EBC10002
:1017E000416B006B01F02CFE012811D113A001F018
:1017F00025FD174861784068427800EB4202D170BD
:101800004278A17800EB420211714178491C417085
:10181000607807EBC00003C801F00EFE6D1CEDB24E
:101820003078A842CED8BDE8F0410AA001F006BD4C
:101830008C0200200000002014010020736B6579E9
:10184000207072657373656420646F776E0A0000A0
:10185000200100207363616E20736B657920636FD4
:101860006D706C657465210A000000000146082255
:10187000014800F0A4BD00009004002010B508A0AD
:1018800001F0DCFC0A4801F0E3FD0948FFF7EEFF38
:1018900008A001F0D3FCBDE81040FFF7A1BD000097
:1018A00073656E64207265706F7274210A000000A7
:1018B0001701002073656E6420636F6D706C657432
:1018C00065210A002DE9F04186B0002426480094E5
:1018D000019402940394816941F02001816181693E
:1018E00001F020010491816941F004018161816965
:1018F00001F004010491816941F00801816180696E
:101900001A4F00F00800049000221F213846FEF70D
:101910008AFDDFF85C80002202214046FEF783FD4D
:101920001F200126CDE90006022569463846CDE98B
:101930000245FEF783FCE0208DE831006946384619
:10194000FEF77CFC009669464046CDE90145FEF76E
:1019500075FCCDE9005669464046CDE90245FEF7E3
:101960006DFC06B0BDE8F0810010024000080140A7
:10197000000C014010B586B0002416480094019474
:1019800002940394049412490594C0E900148460FD
:10199000C460046144618461FFF78DFB08B1FEF708
:1019A0003AFC4FF48050009069460A48FFF7CAFBA2
:1019B00008B1FEF730FC049404A906480594FFF72B
:1019C00059FB002801D0FEF726FC06B010BD000030
:1019D000002C01409003002010B586B0002415486B
:1019E000009401940294039404944FF08041059470
:1019F000C0E900148460C46004618461FFF75BFB8C
:101A000008B1FEF708FC4FF4805000906946094881
:101A1000FFF798FB08B1FEF7FEFB049404A9054804
:101A20000594FFF727FB002801D0FEF7F4FB06B072
:101A300010BD0000D003002010B586B0002415486A
:101A40000094019402940394049411490594C0E90C
:101A500000148460C46004618461FFF72CFB08B14A
:101A6000FEF7D9FB4FF48050009069460948FFF714
:101A700069FB08B1FEF7CFFB049404A9054805945F
:101A8000FFF7F8FA002801D0FEF7C5FB06B010BD3D
:101A900000040040100400200C4810B50A49016001
:101AA0004FF4E1314160002181600C22C160C0E946
:101AB00004128161C161FFF7B0FB002803D0BDE8CB
:101AC0001040FEF7A8BB10BD0038014050040020B4
:101AD00010B500220B490C4800F0E8FC08B1FEF7F5
:101AE0009AFB0A49084800F0B3FE08B1FEF793FBE1
:101AF000054800F003FF002803D0BDE81040FEF7C2
:101B00008ABB10BD28010020900400208C01002019
:101B1000FEE770472DE9F05F044648F60F7B4FF073
:101B2000020A4FF480684AE1B0F8441011F00F0641
:101B300029D030F82670390479D530F8261040F6CF
:101B40008F72114041F0800120F8261004EB4615F9
:101B500095F8340105F594750028206868D0297837
:101B600030F8212052047DD5B0F850200AEBC10195
:101B70000A4408EB4201415AC1F309015FEA010935
:101B800071D02A89D2E0C9062DD4018801EA0B015F
:101B900041F400410180206804F12805B0F850208C
:101BA0002B780AEBC3010A4408EB4201405AC0F308
:101BB00009006064E16B0844E06300212046FEF701
:101BC000F0FC94F824000028ADD0A8690028AAD120
:101BD00094F82400216840F08000A1F84C00002017
:101BE00084F82400EBE0018804F594750A0520D5FB
:101BF000B0F850202B78062101EBC3010A4408EB12
:101C00004201405A04F50C71C0F30903EB61EA8804
:101C1000206801F0E1FA2068018840F68F721140D7
:101C200041F0800101802046FEF7EBFEC7E0A2E014
:101C300058E0090455D5018840F68F72114041F0F3
:101C4000800101802168B1F850202B78062000EB3C
:101C5000C300024408EB4200085A83059B0DEB6168
:101C600010D001E053E065E0696959B1EA88206865
:101C700001F0B2FAE9696869084468610021204608
:101C8000FEF796FC2068B0F850100844296900F26D
:101C90000C4051B13E2910D84A08C90700D0521C47
:101CA0004FF6FF7101EA82210FE0018821F4F8412B
:101CB0000180018841F4004107E04A09C90600D1CA
:101CC000521E4FF4004141EA8221018020680188C0
:101CD0004BF68F72114081F4405148F2800211435B
:101CE00001806CE0B0F850202B78062101EBC30195
:101CF0000A4408EB4201415AC1F309015FEA0109B4
:101D000024D0EA884B46696901F066FA1EE0B0F813
:101D10005030062202EBC1015A1808EB4201415A29
:101D2000C1F309015FEA010904D06A894B46696978
:101D300001F052FA2878226832F8201048F68F73A2
:101D4000194048F2C003194322F82010E8694844BA
:101D5000E861686900EB09026A61AB6913B128693F
:101D6000484504D929782046FEF722FC03E029786B
:101D70002046FEF7A3FC380621D5216804EB461067
:101D800031F8262002EA0B0242F4004221F8262014
:101D90002168B1F8505010F8282F0AEBC2022A44EB
:101DA00008EB4202895AC1F30901C16142690A4440
:101DB000426101788369204653B1FEF7CBFC20686D
:101DC000B0F8441009043FF5AFAE0020BDE8F09F25
:101DD000FEF7E7FBF3E770477047FEF72FBB30B520
:101DE00093B028216846FEF7B6F914210AA8FEF739
:101DF000B2F9002401200F9410941194010412945C
:101E00008DE8130004904FF4E010CDE9081002258E
:101E100007956846FEF78AFF0F20CDE90A0568029C
:101E2000CDE90C4002210AA80E94FEF793FE102083
:101E30000F9012940FA8FEF717FE13B030BD0000EC
:101E40000D48016841F00101016041680B4A1140F1
:101E5000416001680A4A11400160016821F4802153
:101E60000160416821F4FE0141604FF41F0181606F
:101E70000449C00308607047001002400000FFF8EA
:101E8000FFFFF6FE08ED00E0F0B50268164B174CB8
:101E9000174D4FF08047984205D0B84203D0A0427A
:101EA00001D0A84203D122F070064A68324398421A
:101EB00005D0B84203D0A04201D0A84203D122F4F9
:101EC0004074CA6822434C6922F0800222430260B7
:101ED0008A68C2620A688262984201D10969016314
:101EE00001214161F0BD0000002C014000040040D0
:101EF0000008004010B5846842EA032224F47F44BD
:101F00000A432243826010BD826822F070020A43B5
:101F100042F007018160704710B5036A046A24F03B
:101F200001040462846924F0F00444EA021423F0FA
:101F30000A020A438461026210BD10B5036A23F0ED
:101F4000100303628369046A23F4704343EA023294
:101F500024F0A00343EA01118261016210BD000078
:101F60002DE9F041044600680169E26821F440511E
:101F7000114301612169A068084361690843216830
:101F8000CA6841F20C639A430243CA6020684169FF
:101F9000A26921F44071114341611E492068642502
:101FA0003226884202D1FEF77BFE01E0FEF768FE92
:101FB00000EBC00101EB001160686FF018078000B2
:101FC000B1FBF0F2B2FBF5F2B1FBF0F37A4303EBB5
:101FD0008202B1FBF0F306EB0212B2FBF5F2B3FBA7
:101FE000F5F302F0F00202EB0312B1FBF0F3B1FBE8
:101FF000F0F0B0FBF5F0784303EB800006EB001047
:10200000B0FBF5F0216800F00F0010448860BDE8D7
:10201000F0810000003801402DE9F0419846174654
:102020000E460446069D1DE0681C1BD02DB1FEF730
:10203000FFF9A0EB0800A84214D92068C16821F478
:10204000D071C1602068416921F001014161202007
:1020500084F8390084F83A00002084F8380003201E
:10206000BDE8F0812068006836EA000004D0002056
:10207000B842D9D00020F3E70120F9E710B5D0F835
:10208000B42252689047002010BD134610B50A468E
:10209000002100F025FB002010BD134610B50A46B4
:1020A000002100F0B8FB002010BD10B504468021CF
:1020B00000F096FB2046BDE81040002100F090BBE8
:1020C00010B505210023C0F894121A46194600F0F5
:1020D00007FB002010BD10B50223C261C0F8943286
:1020E000026213460A46002100F095FB002010BD55
:1020F00010B504210023C0F894121A46194600F0C6
:102100008AFB002010BD000010B50A46024903A05A
:1021100000F0E2F8004810BDD409002048494420EE
:10212000436F6E66696700001220088000487047A0
:102130004801002010B50A46024903A000F0CCF87F
:10214000004810BDD409002048494420496E7465F8
:1021500072666163650000000420088000487047D3
:102160004401002010B50A46024903A000F0B4F86B
:10217000004810BDD409002053544D6963726F6547
:102180006C656374726F6E696373000010B50A4604
:10219000024903A000F0A0F8004810BDD4090020B7
:1021A00053544D33322048756D616E20696E7465ED
:1021B000726661636500000010B51A2008800A4845
:1021C0000168001D0468001D0068081809D0082275
:1021D0000649FFF7E9F80549042210312046FFF7C8
:1021E000E3F80248801E10BDE8F7FF1F5E010020E3
:1021F000F8B504460020ADF8000048880D46010AF5
:10220000082948D2DFE801F04704091747473C4551
:10221000D4F8B012207C0A6819E0207C022600283D
:10222000D4F8B40205D0C16A6846884701464670B2
:102230003EE0816AF8E7C0B206282CD2DFE800F061
:10224000030A1014181CD4F8B002426805E069466D
:1022500090471CE0D4F8B0028268E2B1207CF6E737
:10226000D4F8B002C268F8E7D4F8B0020269F4E723
:10227000D4F8B0024269F0E7D4F8B0028269ECE722
:10228000207C40B9D4F8B402416B684688470146C7
:102290000EE0207C20B129462046FFF706FFF8BD5E
:1022A000D4F8B402016B684688470146072048709D
:1022B000BDF8000048B1EA8852B1824200D9024616
:1022C000ADF800202046FFF706FFE8880028E6D199
:1022D0002046FFF70DFFF8BD70B5002300281ED083
:1022E0000446002502E06D1CEDB2641C2678002E29
:1022F000F9D1022404EB450414801278CA545B1C03
:102300000322CA5400245B1C06E0CA545B1CDAB2E8
:102310008C54521CD3B2401C0278002AF5D170BDF7
:1023200001004FF0000004D0012901D0022901D0A2
:102330000220704701207047D0F8B80200210173D5
:102340000846704770B50446812100F0CDF800259D
:10235000E562D4F8B80218B100F02DFCC4F8B85208
:10236000002070BD0A210180004870473C02002017
:102370002221018000487047C401002022210180F1
:1023800000487047E8010020222101800048704782
:102390000C02002010B5044604230322812100F022
:1023A00093F90120E062102000F006FCC4F8B802A6
:1023B00018B100210173084610BD022010BD10B5F0
:1023C000134690F89C42D0F8B822032C07D1147B16
:1023D0002CB9012414730A46812100F01CFA002054
:1023E00010BD000038B503460022D0F8B802ADF8A1
:1023F000002014460A7812F0600216D0202A4AD132
:102400004A78022A0ED0032A06D00A2A06D00B2ABE
:1024100041D18978016042E001222BE04988090A14
:1024200041603CE00122011D25E04A7832B1062AD4
:102430000BD00A2A23D00B2A2DD128E093F89C0236
:10244000032828D10222694615E048882222B2EBEF
:10245000102F05D1CA883F2A00D93F22124809E02F
:102460002122B2EB102F16D10F48CA881838092A3A
:1024700000D9092201461846FFF72DFE0FE093F818
:102480009C22032A07D1012200F10801F3E793F807
:102490009C22032A05D01846FFF707FE0224204697
:1024A00038BD89788160FAE74802002010B580B114
:1024B000D0F8B43213B10023C0F8B43209B1C0F877
:1024C000B012012180F89C12027000F0BBF80020CD
:1024D00010BD022010BD10B5D0F8C002FEF794F870
:1024E000BDE81040FFF71CBF10B5D0F8C002FEF7E2
:1024F00067F8BDE81040FFF713BF2DE9F04117461C
:10250000044651B1D4F8B40242691AB194F89C025D
:10251000032851D00220BDE8F081D4F89432002580
:1025200004F11400022B03D0042B3AD0C3B33CE0D7
:10253000D0E903639E4207D9F11AC1608AB23946D5
:102540002046FFF7AAFD12E08068B0FBF3F103FB21
:10255000110199B9984211D3D4F8981288420DD23A
:10256000002211462046FFF798FDC4F89852002338
:102570001A461946204600F0B3F816E0D4F8B40223
:10258000C16829B194F89C02032801D120468847EC
:102590008021204600F024F92046FFF791FD04E059
:1025A000FFE78021204600F01BF994F8A0020128E3
:1025B00004D184F8A05201E0204690470020AAE709
:1025C00070B51546044649B1D4F8B40282691AB10F
:1025D00094F89C02032830D0022070BDD4F89412E5
:1025E00004F5AA70032902D005291ED027E0D0E9FE
:1025F00003218A420BD9531AC3600846834200D391
:1026000003469AB229462046FFF73FFD17E0D4F86B
:10261000B402016929B194F89C02032801D1204633
:1026200088472046FFF764FD09E000200146C4F812
:102630009402204600F0D4F801E0204690470020A4
:1026400070BD000010B517490446C1F86802C0F813
:10265000C0121548086008204860022088600020E9
:102660008861C86108620846FEF714F908B1FDF7F1
:10267000D2FD0022D4F8C0021823114604F53074AC
:10268000FDF774FF5823002280212068FDF76EFFBC
:102690004FF48073002281212068FDF767FF00203E
:1026A00010BD000068070020005C00400A06D0F85A
:1026B000C00201F07F0100EB411002D590F82A0022
:1026C000704790F82A01704710B51C461346D0F8A1
:1026D000C0022246FDF7C4FFBDE81040FFF720BE50
:1026E00010B5D0F8C002FDF7E9FFBDE81040FFF7D4
:1026F00017BE70B50022044640231146FFF7E4FFE1
:1027000040260125C4F8646133460022802120461A
:10271000C4F85851FFF7D8FF6662A56184F89C524F
:102720000020C4F894026060C4F8A402D4F8B8028F
:1027300028B1D4F8B4020021426820469047002016
:1027400070BD90F89C12042903D190F89D1280F876
:102750009C120020704710B590F89C12032904D1F8
:10276000D0F8B412C96901B18847002010BD0174C6
:102770000020704710B5D0F8C002FEF72EF9BDE872
:102780001040FFF7CDBD70B5044600F52A70054630
:1027900000F04AF80120C4F89402B4F8AE02C4F87C
:1027A000980294F8A80210F01F010AD001290DD058
:1027B000022910D000F08001204600F011F800201E
:1027C00070BD2946204600F09EF8F8E729462046CD
:1027D00000F0CAF9F3E72946204600F01DF9EEE7BC
:1027E00010B5D0F8C002FDF780FFBDE81040FFF73C
:1027F00097BD10B5D0F8C002FEF70AF9BDE8104049
:10280000FFF78EBD90F89C1280F89D12042180F88D
:102810009C120020704710B5D0F8C002FDF79AFF57
:10282000BDE81040FFF77CBD0A7802704A7842701C
:102830008A78CB7802EB032242800A794B7902EB4B
:10284000032282808A79C97902EB0121C180704715
:102850000246002011B1C2F8B4127047022070473E
:1028600010B5D0F8B42202241AB11268904700B90A
:102870000024204610BD000070B50E461E4D89781C
:1028800004462970012931D894F89C0202280BD003
:1028900003280FD031462046FFF707FC2978204651
:1028A000BDE87040FFF7EABBD9B10320616084F84E
:1028B0009C0209E071B16068884212D0C1B2204622
:1028C000FFF7DCFB297861602046FFF7C9FF02288B
:1028D0000CD006E0022084F89C0220466160FFF7DD
:1028E000CDFB2046BDE87040FFF702BC31462046D4
:1028F000BDE87040FFF7D9BB8801002010B5FFF795
:1029000078FF002010BD2DE9F0410A78002612F072
:10291000600208D0202A01D0402A70D1D0F8B42219
:10292000926890476DE04B78002201250A2B66D211
:10293000DFE803F0405D6557650805652C29FFF762
:1029400057FC5EE004468888D8B9C888C8B948886A
:10295000802816D200F07F0794F89C02032810D03C
:1029600084F89E7239462046FFF704FF2046FFF7A1
:10297000BFFB1FB1022084F89C0242E084F89C5205
:102980003FE020463BE0FFF777FF3AE0CB88012BA2
:1029900035D190F89C32012B04D0022B02D0032BAE
:1029A0002DD104E08260012200F1080116E001222D
:1029B000011D13E090F89C22012A03D0022A01D0C5
:1029C000032A1CD1CA88022A19D1C560D0F8A412E2
:1029D00009B10321C160022200F10C01FFF77BFB6A
:1029E0000FE0498801290CD1C0F8A45211E090F8F9
:1029F0009C32012B08D0022B06D0032B04D0FFF70A
:102A000054FB3046BDE8F08149880129F9D1C0F86E
:102A1000A422FFF76DFBF4E72DE9F0410A460446D6
:102A200010780027097910F060030AD0202B01D01C
:102A3000402B50D1D4F8B402114683682046984701
:102A40008FE0C0F34110012806D05078D0B30128A0
:102A50002AD003283FD107E0D4F8B4021146836896
:102A60002046BDE8F041184794F89C02022802D0A5
:102A7000032872D10AE071B380296ED02046FFF797
:102A8000AFFE80212046FFF7ABFE6AE0508838B9E0
:102A900031B1802904D0D08810B92046FFF7A0FEBC
:102AA0002046FFF725FB5CE094F89C020228E2D068
:102AB000032852D1508898BB4806F1D02046FFF732
:102AC0000AFDEDE7FFE794F89C020026022803D0F8
:102AD000032842D112E040E009B180293DD1080627
:102AE00001F07F0000EB800004EB800101D5143180
:102AF00001E001F5AA7102220E602AE0080601F049
:102B00000F0000EB800004EB80000AD5806920B341
:102B100001F07F0000EB800004EB800514350BE032
:102B20001FE0D0F85801C0B101F07F0000EB800039
:102B300004EB800505F5AA7541B1802906D0204631
:102B4000FFF7B4FD10B10120286000E02E600222E2
:102B500029462046FFF7BFFA03E011462046FFF75B
:102B6000A4FA3846BDE8F08170B5054608780C46F1
:102B700010F0600003D0202801D0402816D195F82D
:102B80009C02012803D0022801D003280ED120790D
:102B900001280BD8D5F8B402826828469047E1880E
:102BA000014306D12846FFF7A3FA02E02846FFF7C3
:102BB0007CFA002070BD7047004870475407002021
:102BC0002DE9F0470C784FF0000C30F8243048F62F
:102BD0008F121340CA78002A7DD0012A7CD0022AA5
:102BE00003D0032A79D04FF0010C48F2800213433E
:102BF00020F824300D7830F8254048F68F731C40BB
:102C00002C43144320F825400F7B48F6BF744BF645
:102C10008F7948F2C0054CF28006EFB391F800803E
:102C2000C24630F8287048F280181F4047EA08076B
:102C300020F82A70B0F8507091F80080074407EB34
:102C40000817B1F8088028F00108A7F80084B0F848
:102C5000507091F80080074407EB0817B1F80A801C
:102C600028F00108A7F808844F7891F80080002F19
:102C700030F828704FEA47477ED0002F05DA30F849
:102C800028701F40374320F828700F7830F82780CD
:102C90005FEA486809D500E033E030F8278008EAA9
:102CA000030848EA050820F827800F7830F82750F5
:102CB0001D40354320F82750CB780D78012B30F894
:102CC000253003EA040301D083F02003134320F8E6
:102CD00025300B7802E00BE010E00CE030F8231018
:102CE00001EA0901114320F823106046BDE8F0878E
:102CF00043F4007379E743F4C06376E743F48063F9
:102D000073E74F7827B3B0F850600F78064406EBAE
:102D10000716CF8827F00107A6F800740F7830F85F
:102D20002760760605D530F827601E402E4320F830
:102D30002760CB78012B06D00B7830F82310214088
:102D400081F02001CEE70B7830F823102140C9E74D
:102D5000B0F850400D78044404EB0514CD8825F0FC
:102D60000105A4F80854B0F850400D78044404EB71
:102D7000051404F20C4400E030E00D6955B13E2D1D
:102D800010D86F08ED0700D07F1C4FF6FF7505EADD
:102D900087250FE0258825F4F8452580258845F40A
:102DA000004507E06F09ED0600D17F1E4FF4004596
:102DB00045EA872525800D7830F82540640405D53F
:102DC00030F825401C40344320F825400B7830F87B
:102DD000231001EA090181F4405183E7002F05DA4D
:102DE00030F828701F40374320F828700E7830F8EC
:102DF00026707F0605D530F826701F402F4320F837
:102E000026700F7830F827601E402E4320F8276088
:102E10000D7830F8253003EA090383F44053134357
:102E200020F825308FE7002070472DE9F04391F816
:102E30000C804F780A7848F6BF7C4BF68F7948F2C1
:102E4000800348F2C0054CF2800648F68F74B8F152
:102E5000000F28D0002F30F822704FEA474748D0A3
:102E6000002F05DA30F822702740374320F822700F
:102E70000A7830F822707F0605D530F82270274096
:102E80002F4320F822700D7830F82520224032435D
:102E900020F825200C7830F8242002EA0C021A438E
:102EA00020F824201AE07FB130F82260760605D59C
:102EB00030F8226026402E4320F822600A7830F84D
:102EC000221001EA0C010EE030F822506D0405D505
:102ED00030F822502540354320F822500A7830F847
:102EE000221001EA0901194320F822100020BDE850
:102EF000F083002F05DA30F822702740374320F89E
:102F000022700A7830F82260760605D530F8226003
:102F100026402E4320F822600E7830F826202240EA
:102F20002A4320F826200C7830F8242002EA0902EF
:102F30001A4320F82420C1E7002070470020704782
:102F400000B50121A0F840100021A0F84010A0F821
:102F50004410A0F8501000F02EF9002000BD30F809
:102F6000401F21F43F41018000207047002070473E
:102F700030B50A7BB2BB4A7848F68F7548F28004B8
:102F8000C2B10B7830F82320520607D530F8232041
:102F90002A4048F2C0052A4320F82320CA78012A93
:102FA00020D00A7830F8221048F6BF73194081F01B
:102FB000200114E00A7830F822305B0407D530F89D
:102FC00022302B404CF280052B4320F822300A7827
:102FD00030F822104BF68F73194081F44051214391
:102FE00020F82210002030BD10B54A780978002A58
:102FF00048F2800330F8212005D048F6BF74224003
:1030000082F0100204E04BF68F74224082F480526A
:103010001A4320F82120002010BDF0B50E460546C9
:1030200091F801C00022097B3469B06948F2800739
:10303000BCF1010F04D0A0424FD9001BB0614EE09B
:10304000A04202D9001BB06101E00446B26169B13F
:10305000307835F820104906B5F85010294401EBB6
:10306000001012D5A0F80C44728911E0A3B2F288C6
:103070002846716900F0CEF8B5F850003178284440
:1030800000EB0110A0F804441EE0A0F804443289CB
:10309000A3B22846716900F0BDF8707848F68F71C8
:1030A00010B1012807D00FE0327835F8220008402F
:1030B00048F2C00105E0327835F8220008404CF2B1
:1030C0008001084325F82200317835F8210048F6C0
:1030D000BF72104080F0300068E00446B2614FF6E5
:1030E000FF724FF4004381B3BCF1000F15D027E00D
:1030F000018821F4F8410180018841F400410AE08F
:103100003E2C3ED86108E30700D0491C02EA812129
:1031100001E043EA8121018040E0B5F850003178B8
:10312000284400EB011000F204407CB13E2C15D87D
:1031300061085FEAC47C00D0491C02EA8121018059
:10314000707810B1012821D028E00FE0018821F427
:10315000F8410180018841F40041F0E761095FEA2C
:10316000C46C00D1491E43EA8121E8E7B5F850005C
:103170003178284400EB011000F20C40002CBFD144
:10318000B6E76109E206C4D1491EC2E7B5F850109E
:103190004819317800EB0110A0F80C44317835F86B
:1031A00021004BF68F72104080F44050384325F8D0
:1031B00021000020F0BD30F8401F41F43F41018064
:1031C000002070470148FDF7DABA000068070020C8
:1031D000B0F844007047000010B500EB42005C08F6
:1031E00000F5806009D000BF30F8042B01F8012BF6
:1031F000120A01F8012B641EF6D1DA0701D000880B
:10320000087010BD0020704711B98021A0F84C1043
:103210000020704710B55B1C00EB42005B0800F516
:10322000806009D011F8012B11F8014B42EA042209
:1032300020F8042B5B1EF5D110BDFEE70FB4054B43
:1032400010B503A9044A029800F028F810BC5DF8F4
:1032500014FB0000F1330008880200200907090E62
:10326000002804DB00F1E02080F80014704700F033
:103270000F0000F1E02080F8141D704702E008C83C
:10328000121F08C1002AFAD170477047002001E0E0
:1032900001C1121F002AFBD1704700002DE9FF4F2A
:1032A00089B09B460446002506E025280BD05A46E7
:1032B0000B999047641C6D1C20780028F5D10DB047
:1032C0002846BDE8F08F0027B8460122474900E0B4
:1032D000074314F8013F203B02FA03F00842F7D1FC
:1032E00020782E2819D114F8010F47F004072A2856
:1032F0000ED06FF02F022078A0F1300109290CD8F0
:1033000008EB880102EB410100EB0108641CF2E7C5
:103310000A98641C50F8048B0A9020780028CED0BC
:10332000642808D0692806D075281ED05A460B9903
:1033300090476D1C58E00A994FF00A0901C90A919B
:10334000002802DA40422D2102E0390504D52B2164
:103350008DF82010012103E0F90704D02021F7E7C0
:103360008A4608AE0DE00021FAE70A994FF00A09F3
:1033700001C90A91F7E74946FCF7F8FE303106F833
:10338000011D0028F7D1ADEB060000F120097807F8
:1033900001D44FF00108C84502DDA8EB090000E0A8
:1033A00000208046002706E008A85A46C05D0B9919
:1033B00090476D1C7F1C5745F6DB04E030205A46D1
:1033C0000B9990476D1CB8F10001A8F10108F5DCDC
:1033D00005E016F8010B5A460B9990476D1CB9F1A0
:1033E0000001A9F10109F4DC641C65E7092801006A
:1033F00013B56423012269460248FDF777FF0020D8
:103400001CBD000050040020FDF720F8FEF7E7FC8B
:10341000FEF758FAFEF7AEFAFEF7DEFAFEF70CFBFF
:10342000FEF73AFBFEF754FBFEF7CCF8FEF760F927
:103430001420FCF7F1FEF9E7C9B20022FCF7F3BF54
:10344000C9B2FCF7EBBFC9B20122FCF7ECBF000028
:10345000F0B58FB00446142217A105A8FCF762FE50
:1034600014221AA10AA8FCF75DFE21788DF8141029
:1034700062788DF81620A3788DF81830E0788DF8F2
:103480001A0025798DF81C5066798DF81E60A77991
:103490008DF82070E4798DF8224004948DE8E100E5
:1034A0000FA0FFF7CBFE642312220AA91348FDF7F1
:1034B0001DFF0FB0F0BD0000302C302C302C302C14
:1034C000302C302C302C300A000000002A2A2A2A06
:1034D0002A2A6F7665722A2A2A2A2A2A0A000000D6
:1034E00025642C25642C25642C25642C25642C252E
:1034F000642C25642C25640A000000005004002080
:1035000030B59DB00446182233A103A8FCF70AFE8B
:1035100037A11422D1E90001CDE9000136A118A894
:10352000FCF700FE142239A109A8FCF7FBFD1422C8
:103530003BA10EA8FCF7F6FD14223EA113A8FCF750
:10354000F1FDA078642330308DF80C00172203A918
:103550003D48FDF7CBFE2078642330308DF8240001
:103560006078142230308DF83800A07809A9303006
:103570008DF84C003448FDF7B9FE642314220EA9DF
:103580003148FDF7B3FE6423142213A92E48FDF73A
:10359000ADFE002515E000BF04EB45016423C878AB
:1035A000052230308DF800000879694630308DF8FA
:1035B00002002548FDF79AFE1E20FCF72DFE6D1C2B
:1035C000EDB2A078A842E7D86423122218A91E48B9
:1035D000FDF78CFE1DB030BD206B657973207072D5
:1035E000657373656420746F74616C6C790A000094
:1035F000202C200A000000002A2A2A2A2A2A6F7674
:1036000065722A2A2A2A2A2A0A0000002020666BCC
:1036100065797320707265737320646F776E0A002A
:103620002020736B65797320707265737320646FEB
:10363000776E0A002020616B657973207072657364
:103640007320646F776E0A00500400207FB508A4D1
:1036500030303CCC8DE83C008DF8000030318DF8E6
:1036600002106423102269460548FDF73FFE7FBD26
:10367000202C202069732072656D6F7665640A00C6
:1036800050040020000000000000000001020304BC
:10369000060708090000000001020304BC36000808
:1036A000000000208C020000BC010008DC3700088C
:1036B0008C0200204C0D00008C32000811450801DE
:1036C000400119085A02085A04085A080832105EC4
:1036D0000404040303105A20085A400842808A0C4C
:1036E0004809532081E92069387114535455145FF7
:1036F000606110085C5D5E57595A5B446263280242
:1037000010292B0303D01A01F34904790C15010188
:10371000030139EAD11329211B0859041A65041A37
:103720008D041AB9041A09041A350417040309048C
:103730001201194011164083042B571A0250199593
:103740000A101A479129B482105324F41395231BAD
:103750000845041AE504819A390C811A7D141A71FE
:10376000041A89041A65041C090222B7111DE032EB
:103770000904591A03C515092111011401223F1624
:103780000705810304220A0917245A4A240A21073B
:103790002429486912314B0A06F429CC100E050180
:1037A0000906A101050719E029E715281A25017561
:1037B000019508810295017508810395057501053C
:1037C0000819012905911218080391039506750837
:0C37D000261AFF30111429658152C00038
:04000005080000ED02
:00000001FF
