:100000000C946C020C94B3020C94B3020C94B302E3
:100010000C94B3020C94B3020C94B3020C94B3028C
:100020000C94B3020C94B3020C94FF1C0C94D21DDC
:100030000C9414140C94B3020C94B3020C94B302F9
:100040000C94B3020C94B3020C94B3020C94B3025C
:100050000C94B3020C9475140C94B3020C94B30278
:100060000C94B3020C94B3020C94B3020C94B3023C
:100070000C94B3020C94B3020C94B3020C94B3022C
:100080000C94B3020C94B3020C94B3020C94B3021C
:100090000C94B3020C94B3020C94B3020C94B3020C
:1000A0000C94B3020C94B3020C94B30253003800C6
:1000B00025022D004A0000004B0000000000220035
:1000C00000002E024D0000004E000000000049001C
:1000D0004C002800010001000100010001000100A6
:1000E0000100000001000100010001000100010009
:1000F00001000000000001000100010001000100FA
:1001000001000100010001000100000001000100E8
:1001100001000100010001000100000000000100D9
:1001200001000100010001000100010001000100C7
:1001300001000000010001000100010001000100B8
:1001400001000000000001000100010001000100A9
:100150000100010001000100010000000100010098
:100160000100010001000100010000000000010089
:100170000100010001000100010001000100010077
:100180000100000001000100010001000100010068
:100190000100000000000100010001000100010059
:1001A0000100010001000100010000000100010048
:1001B0000100010001000100010000000000010039
:1001C0000100010001000100010001000100010027
:1001D0000100000001000100010001000100010018
:1001E0000100000000000100010001000100010009
:1001F00001000100010001000100000001000100F8
:1002000001000100010001000100000000000100E8
:1002100001000100010001000100010001000100D6
:1002200001000000010001000100010001000100C7
:1002300001000000000001000100010001000100B8
:1002400001000100010001000100000001000100A7
:100250000100010001000100010000000000010098
:100260000100010001000100010001000100010086
:100270000100000001000100010001000100010077
:100280000100000000000100010001000100010068
:100290000100010001000100010000000100010057
:1002A0000100010001000100010000000000010048
:1002B0000100010001000100010001000100010036
:1002C0000100000001000100010001000100010027
:1002D0000100000000000100010001000100010018
:1002E0000100010001000100010000000100010007
:1002F00001000100010001000100000000000100F8
:1003000001000100010001000100010001000100E5
:1003100001000000010001000100010001000100D6
:1003200001000000000001000100010012036B0049
:100330006500790062006F006100720064000000D7
:10034000160371006D006B006200750069006C009F
:1003500064006500720000000403090409026D00D6
:10036000040100A0FA0904000001030101000921B1
:10037000110100012240000705810308000A090459
:1003800001000103010200092111010001224D00B9
:100390000705820308000A090402000103000000A7
:1003A0000921110100012236000705830308000A14
:1003B00009040300010300000009211101000122CA
:1003C000390007058403200001120110010000001C
:1003D00008EDFE606001000102000105010906A1AF
:1003E00001050719E029E715002501950875018128
:1003F00002050819012905950575019102950175F8
:100400000391010507190029F71500250195F875D5
:10041000018102C005010980A101850216010026A3
:1004200003001A81002A8300751095018100C00520
:100430000C0901A1018503160100269C021A010086
:100440002A9C02751095018100C005010902A101D5
:100450000901A100050919012905150025019505C6
:10046000750181029501750381010501093009318A
:100470001581257F95027508810609381581257F2C
:10048000950175088106050C0A38021581257F95AE
:100490000175088106C0C005010906A101050719FB
:1004A000E029E71500250195087501810295017580
:1004B0000881010508190129059505750191029525
:1004C00001750391010507190029FF150026FF009A
:1004D000950675088100C00011241FBECFEFDAE039
:1004E000DEBFCDBF04B603FE27C0809110029091FD
:1004F0001102A0911202B09113028730904BA740D5
:10050000B04BD1F41092100210921102109212020C
:100510001092130214BE84B7877F84BF0FB6F8947D
:10052000A8958091600088618093600010926000BF
:100530000FBEE0E0F8E3099511E0A0E0B1E0EEE7DE
:10054000F2E402C005900D92A033B107D9F722E082
:10055000A0E3B1E001C01D92A031B207E1F70E9413
:10056000551A0C9411210C94000090E080E008953D
:100570000895089581E0089580FF03C0859A8D98BD
:1005800008958598FCCF81E008950C94BA020E94EA
:10059000680C2FEF84E39CE0215080409040E1F70D
:1005A00000C000000C949814EF92FF920F931F93D9
:1005B000CF93DF938C01FC01E080F18080915B019F
:1005C000811140C082818823C1F1C7010E94EB11D3
:1005D000C82F682FC7010E949611B7018C2F0E9467
:1005E0000C04EC01B8010E94C502882309F44BC039
:1005F000B801CE010E941506882309F444C0C53114
:10060000F0E7DF0720F5C23080E7D80708F04DC0DB
:10061000C115E0E7DE0791F1C130D047E1F181E09B
:100620008093320180933301C801DF91CF911F91F4
:100630000F91FF90EF900C94C302C7010E94C31169
:10064000C82FCBCFC7010E94EB11B701C8CFCC3365
:1006500080E7D80709F49BC0CD33D04701F7F801F4
:100660008281882309F4BAC0109233010E94441495
:10067000909331018093300180E296C0F80182812D
:1006800081110E94C70280E0DF91CF911F910F91ED
:10069000FF90EF900895F80182818823A1F3809163
:1006A000D00181608093D001EECFF8018281882350
:1006B00009F4BACF0E94A613811102C00E948C13C4
:1006C0000E94C31390E09093020280930102FE0106
:1006D000E350F047809101028160E231F10538F486
:1006E000ED5EFE4D0C94C1208091010282608093EA
:1006F0000102809101020E94C7130E94680CC3CFBF
:10070000809101028460F3CF809101028860EFCF75
:10071000809101028061EBCF809101028062E7CF7E
:10072000809101028064E3CF809101028068DFCF75
:10073000809101028C60DBCF809101028E7FD7CF48
:10074000809101028D7FD3CF809101028B7FCFCF2B
:1007500080910102877FCBCF809101028F7EC7CF2E
:10076000809101028F7DC3CF809101028F7BBFCF2B
:10077000809101028F77BBCF80910102837FB7CF39
:1007800090910102892F97FB87F98058B0CFF8012B
:100790008281882361F0109232010E944414909368
:1007A00031018093300182E00E94CD096CCF8091AD
:1007B000320181110FC080913001909131010E946E
:1007C0005014883C910530F486E20E94A20886E22B
:1007D0000E947E0982E00E94D40955CF80913301A6
:1007E00081110FC080913001909131010E9450140D
:1007F000883C910530F487E20E94A20887E20E94BB
:100800007E0980E2E8CF0C9464060C9466060C9492
:10081000BC020C9407040895E72FF0E095E0899F4F
:10082000E00DF11D1124EE0FFF1FEE0FFF1FE60F6D
:10083000F11DEE0FFF1FE455FF4F85919491089530
:10084000FC01EE0FFF1FE45DFC4F8591949108952C
:100850000E940C040E9499059C01811540E49407B4
:1008600008F097C0211580E3380708F0FAC0203E51
:10087000310508F074C0203C310508F0E5C0283A85
:10088000310588F4253A310508F0E2C02130310500
:1008900009F477C0C9010497813A910508F471C041
:1008A00030E020E06EC0C901885A91094597C0F731
:1008B000283A310509F4FEC0293A310509F4FDC092
:1008C0002A3A310509F4FCC02B3A310509F4FBC082
:1008D0002C3A310509F4FAC02B3B310509F4F9C073
:1008E0002C3B310509F4F8C02D3A310509F4F7C065
:1008F000203B310509F4F6C02E3A310509F4F5C064
:100900002F3A310509F4F4C0213B310509F4F3C055
:10091000223B310509F4F2C0233B310509F4F1C053
:10092000243B310509F4F0C0253B310509F4EFC043
:10093000263B310509F4EEC0273B310509F4EDC033
:10094000283B310509F4ECC0293B310509F4EBC023
:100950002A3B310509F4EAC020E034E412C0211535
:1009600090E2390780F42F3F310509F050F4283E1A
:10097000310538F0C901805F91093065409708F072
:100980008FCFC9010895C9019F700E9420049C0166
:10099000F8CF8115944508F041C0211583E538074B
:1009A00008F06AC0211592E5390738F5211541E5AF
:1009B000340708F05CC0211580E5380708F454C0FE
:1009C000C90134E0969587953A95E1F78370422FF7
:1009D00046954695437090E2499FA0011124582BFB
:1009E000822F837021E030E002C0220F331F8A95EE
:1009F000E2F7242B352B3C68C4CFC90183709927BB
:100A000041E050E002C0440F551F8A95E2F7269559
:100A1000269580E2289F90011124EBCF211596E5C1
:100A2000390748F4922F882721153545C8F59C01D0
:100A3000246F306AA6CFC90190563F70811590414E
:100A400008F02ECF30629DCFC901805C91099DCF07
:100A5000253A310549F1263A310549F522E830E4D5
:100A600090CF3327306C8DCF3F70306A8ACF322FD2
:100A70002227216F306A85CFC9018370992741E011
:100A800050E002C0440F551F8A95E2F7269526953F
:100A900080E2289F90011124242B352B3A6871CFD6
:100AA00088279F719C01CECF21E830E46ACF23E8EC
:100AB00030E467CF22EE34E464CF29EE34E461CF32
:100AC0002AEE34E45ECF25EB34E45BCF26EB34E44E
:100AD00058CF23EB34E455CF24EB34E452CF27EB4B
:100AE00034E44FCF2CEC34E44CCF2DEC34E449CF3C
:100AF00023E835E446CF2AE835E443CF22E935E45C
:100B000040CF24E935E43DCF21E236E43ACF23E279
:100B100036E437CF24E236E434CF25E236E431CF71
:100B200026E236E42ECF27E236E42BCF2AE236E463
:100B300028CF803E910581F1C8F48133910509F4F5
:100B400062C048F48932910509F456C08A32910591
:100B500009F460C0089589339105B9F08238910590
:100B6000A1F08533910509F440C00895863E9105B2
:100B700061F138F4823E9105B1F0833E9105E1F0D8
:100B80000895873E910551F1089520910102237047
:100B9000D9F080EE90E008952091010220FF14C06A
:100BA00089E390E008952091010222FF0DC024FD09
:100BB00009C083EE90E008952091010222FD31C02A
:100BC00024FF02C090E080E008952091010223FFFD
:100BD000FBCF24FDF7CF87EE90E00895209101022E
:100BE00023FFEECF86EE90E008952091010225FFCD
:100BF000EBCF89E290E008952091010225FFE4CF38
:100C000085E390E008952091010226FFDDCF8AE27E
:100C100090E008952091010226FFD6CF81E390E075
:100C2000089582EE90E0089508950F931F93CF9357
:100C30008C01FB018281811106C0C1E08C2FCF9114
:100C40001F910F910895C0914101C11125C0053137
:100C5000104799F70E94140681E0809341010E9499
:100C600044149093400180933F01109234011092FC
:100C7000360110923501109238011092370110920E
:100C80003A011092390110923C0110923B011092EE
:100C90003E0110923D01D2CF80913F0190914001E1
:100CA0000E945014883C910540F680913401E82F51
:100CB000F0E0EE0FFF1FEB5CFE4F118300838F5FB0
:100CC00080933401C0E0BACF0C94B8020C94B902FE
:100CD000CF93DF9385B7806885BF85B7806885BF70
:100CE000A3E1B1E047E151E0C1E0D0E08D91E82F10
:100CF000E295EF70F0E061A18F709E0101C0220FBC
:100D00008A95EAF7922F9095962391A382A1822B40
:100D100082A34A175B0751F7A7E1B1E061E070E0F9
:100D20008D91E82FE295EF70F0E041A18F709B016B
:100D300001C0220F8A95EAF7922F9095942391A3F0
:100D400082A1822B82A381E0AC31B80749F71092CF
:100D500047011092420110924801109243011092F3
:100D600049011092440110924A01109245011092DB
:100D70004B0110924601DF91CF910C9403044F92E6
:100D80005F926F927F928F929F92AF92BF92CF921B
:100D9000DF92EF92FF920F931F93CF93DF9303E1C4
:100DA00011E0512C412CEE24E394F12CDD24D3945A
:100DB000E80189918E01E82FE295EF70F0E091A1B2
:100DC0008F70A70101C0440F8A95EAF7892F842B01
:100DD00081A392A1942E9094992192A3D0EADA95BE
:100DE000F1F7C701042C01C0880F0A94EAF7782EA6
:100DF000882E8094A2E4B1E067E171E0C12C6D908F
:100E0000EB012991BE01A22EA2948FE0A822B12C61
:100E1000E50188A190E02F7002C0959587952A95ED
:100E2000E2F79D012150310980FD5BC0872D8629A5
:100E3000E90188838881681611F0CC24C394D1E03D
:100E4000A734BD07E1F681A1892181A382A1842B6A
:100E500082A3CC2041F0D0924C010E944414909384
:100E60004E0180934D01EFEF4E1A5E0AF4E04F16EB
:100E7000510409F09DCF80914C018823F1F08091BD
:100E80004D0190914E010E9450140697B0F0809150
:100E900042018093470180914301809348018091F2
:100EA0004401809349018091450180934A018091DA
:100EB000460180934B0110924C010E94050481E091
:100EC000DF91CF911F910F91FF90EF90DF90CF9026
:100ED000BF90AF909F908F907F906F905F904F905A
:100EE0000895882D8621A4CFE82FF0E0E95BFE4F1E
:100EF000808108950895909354018093530108953B
:100F0000E0915301F0915401309721F00190F0816C
:100F1000E02D099480E00895E0915301F09154018F
:100F2000309721F00280F381E02D09940895E0913B
:100F30005301F0915401309721F00480F581E02DA8
:100F400009940895209151013091520128173907D1
:100F500071F09093520180935101E0915301F0910F
:100F60005401309721F00680F781E02D099408950F
:100F700020914F01309150012817390771F090935B
:100F8000500180934F01E0915301F091540130974B
:100F900021F00084F185E02D0994089508950C94C2
:100FA000CE070E943B140E9468060C94FD14BF9269
:100FB000CF92DF92EF92FF920F931F93CF93DF9325
:100FC00000D000D00F92CDB7DEB70E94BF0686E5F5
:100FD000C82E81E0D82E10E000E0E02E802F0E9485
:100FE0007407B82EF601F1906F01F81609F45BC092
:100FF0008091D00181FD0E947A0730E020E0FB243F
:101000004F2D50E0922FBA01022E02C075956795C0
:101010000A94E2F760FF41C02983EA8221E030E0D0
:10102000790102C0EE0CFF1C9A95E2F72B2D30E0FF
:101030002E213F2181E0232B09F480E08B830E9445
:1010400044148160782F9D838C8349815A816B8100
:101050008D810E947908F801EA5AFE4F80818E2521
:1010600080830E94AA170E948007909155018917DA
:1010700089F10E948007809355010F900F900F9087
:101080000F900F90DF91CF911F910F91FF90EF90F4
:10109000DF90CF90BF900C9409042F5F3F4F243016
:1010A000310509F0AFCF0F5F1F4F0530110509F073
:1010B00094CF8FEF89838A831B820E9444148160BE
:1010C000782F9D838C8349815A816B818D810E9409
:1010D0007908C7CF0F900F900F900F900F90DF916E
:1010E000CF911F910F91FF90EF90DF90CF90BF9025
:1010F0000895CF93DF93CDB7DEB72B970FB6F89453
:10110000DEBF0FBECDBF4F83588769877A878B8735
:101110001E8285E0FE013796DE01119601900D9248
:101120008A95E1F749815A816B817C818D819E810D
:101130002B960FB6F894DEBF0FBECDBFDF91CF91D7
:101140000C94F00E882309F4D8C0823871F40E9400
:10115000800781FDD2C089E30E9493120E945D1333
:1011600089E30E94D0120C945D13833859F40E94D5
:10117000800780FDC2C083E50E9493120E945D1328
:1011800083E5EFCF843859F40E94800782FDB5C013
:1011900087E40E9493120E945D1387E4E2CF9CEFE4
:1011A000980F913A18F40E949312DDCF90E2980FB5
:1011B000983050F4877091E001C0990F8A95EAF752
:1011C000892F0E941413CFCF9BE5980F933070F4B2
:1011D000853A31F0863A39F083E890E00C94A20722
:1011E00081E890E0FBCF82E890E0F8CF98E5980F97
:1011F000953108F082C0883A09F440C0893A09F470
:1012000040C08A3A09F440C08B3A09F440C08C3A95
:1012100009F440C08B3B09F440C08C3B09F440C04A
:101220008D3A09F440C0803B09F440C08E3A09F47D
:1012300040C08F3A09F440C0813B09F440C0823B72
:1012400009F440C0833B09F440C0843B09F440C02A
:10125000853B09F440C0863B09F440C0873B09F454
:1012600040C0883B09F440C0893B09F440C08A3B38
:1012700009F440C090E080E00C94B80782EE90E062
:10128000FBCF89EE90E0F8CF8AEE90E0F5CF85EBCA
:1012900090E0F2CF86EB90E0EFCF83EB90E0ECCFE5
:1012A00084EB90E0E9CF87EB90E0E6CF8CEC90E028
:1012B000E3CF8DEC90E0E0CF83E891E0DDCF8AE8EA
:1012C00091E0DACF82E991E0D7CF84E991E0D4CF01
:1012D00081E292E0D1CF83E292E0CECF84E292E04D
:1012E000CBCF85E292E0C8CF86E292E0C5CF87E21D
:1012F00092E0C2CF8AE292E0BFCF0895882309F43A
:101300004BC0823871F40E94800781FF45C089E399
:101310000E9493120E945D1389E30E94D0120C94E4
:101320005D13833859F40E94800780FF35C083E540
:101330000E9493120E945D1383E5EFCF843859F425
:101340000E94800782FF28C087E40E9493120E94B7
:101350005D1387E4E2CF9CEF980F913AF0F290E2B0
:10136000980F983050F4877091E001C0990F8A95DA
:10137000EAF7892F0E941A13D2CF9BE5980F93307A
:1013800020F490E080E00C94A207885A853120F484
:1013900090E080E00C94B8070895882321F00E9423
:1013A00014130C945D130895882321F00E941A13DE
:1013B0000C945D1308958F929F92AF92BF92DF922B
:1013C000EF92FF920F931F93CF93DF9300D000D043
:1013D0000F92CDB7DEB77C016D837983FC01058167
:1013E00002950F70128111110E9433130E948C120A
:1013F000D82E882371F01123A1F08D81805E883072
:1014000080F082E00E9476120E948C1291E0D82E29
:10141000D926E981E295EF70F0E0EB5DFE4D0C948A
:10142000C120D12CF6CF09810F70F981F07F11F026
:101430000295007F1123B1F0002361F08D81805E61
:10144000883018F02D81211109C0802F0E941413BB
:101450000E945D138D810E94A20815C0802F0E94FA
:101460002513F6CF8D810E947E09002361F08D81C6
:10147000805E883018F03D81311129C0802F0E9494
:101480001A130E945D13DD2009F4D3C10E94691272
:1014900080FDCFC1F70112820E9463120E94AE103C
:1014A000C7010E942A0C0E9463120F900F900F90A8
:1014B0000F900F90DF91CF911F910F91FF90EF90C0
:1014C000DF90BF90AF909F908F900C94D010802FA2
:1014D0000E942B13D6CF49814F70B42E5981507F73
:1014E000503219F0B29480EFB8228D81882369F0D0
:1014F000813029F1112369F1002359F0F701858129
:1015000080FFA8CF8F70858304C0112361F0011183
:1015100004C08B2D0E94CD09B6CF8B2D0130D1F7A1
:101520000E944713B0CF011106C00E944A138B2DB1
:101530000E94D409A8CF013009F4A5CFF6CF11231A
:1015400021F0063008F09FCFE4CF053008F09BCFA4
:10155000EECF002361F38D810E947E0994CF8981B3
:1015600086958695837069F0813009F08CCF8D81E6
:1015700099819370111102C090E080E00E94B80739
:1015800082CF8D8199819370111102C090E080E02B
:101590000E94A20778CF8D81112329F00E94B816EE
:1015A0000E949F1770CF0E942017FACF8981837005
:1015B00009F05FC0111167CF2D8122952695277004
:1015C000220F220F8D818F7090E0B0E0A0E04C01DF
:1015D0005D01022E04C0880C991CAA1CBB1C0A9435
:1015E000D2F7FD8160E070E0CB01F4FF0FC06FE047
:1015F00070E080E090E004C0660F771F881F991F9D
:101600002A95D2F7609570958095909529812695B9
:10161000269523702D832230B1F0233019F19B01E0
:10162000AC01282939294A295B2929833A834B832C
:101630005C833D8169817A818B819C813130B1F0FD
:101640000E943B1020CF9B01AC01282939294A294F
:101650005B2929833A834B835C83CA01B9010E94C9
:10166000651011CF0E943B10C501B4010E941110FA
:101670000ACF8695112311F089818170882309F49E
:1016800002CF2D81229526952770220F220F8D8162
:101690008F7090E0B0E0A0E04C015D01022E04C02C
:1016A000880C991CAA1CBB1C0A94D2F73D8160E0EF
:1016B00070E0CB0134FF0FC06FE070E080E090E09D
:1016C00004C0660F771F881F991F2A95D2F760956F
:1016D00070958095909549814695469543704D83C8
:1016E0004230B1F0433019F19B01AC01282939296E
:1016F0004A295B2929833A834B835C833D81698135
:101700007A818B819C813130B1F00E944111BBCE36
:101710009B01AC01282939294A295B2929833A836D
:101720004B835C83CA01B9010E946B11ACCE0E944D
:101730004111C501B4010E941711A5CE3D81323F70
:1017400009F447C080F4303F79F1313FD9F1832F5C
:10175000805E8031D0F0112309F456C001117ACE99
:1017600089818F7133C04D81433FD1F1443F99F757
:10177000112309F43FC089818F7189830E94AE10C3
:1017800063E089810E946D127ECE5D815F705D8312
:1017900089818F71112321F00E94AE108D81BACE04
:1017A0000E94D0108D81C4CE112341F0053008F085
:1017B0006ACE89818F710E94F51065CE063008F0DF
:1017C00062CEF7CF89818F71112339F00E94AE105C
:1017D0005ACE89818F711123C9F30E94D01053CE44
:1017E000112329F089818F710E9499104CCE0E949B
:1017F0008F1049CE81E00E947612023008F443CE69
:1018000082E00E9476123FCE0111A5CE89818F71B0
:10181000E4CF49814F706D81C7010E94B5020E94DB
:101820008A0F31CE49814F706D81C7010E940B0430
:101830002ACE0F900F900F900F900F90DF91CF91C5
:101840001F910F91FF90EF90DF90BF90AF909F900E
:101850008F9008950F931F93CF93DF93EC018B81AB
:101860009C81892B29F08881998189238F3F29F4D4
:10187000DF91CF911F910F910895CE010E94D40264
:101880008823B1F3688179818A810E9439128C01A1
:101890000E9495110E940610B801CE01DF91CF91F0
:1018A0001F910F910C94DB090E9433130E94441383
:1018B0000E9406130E945D130E9490180E949F17B9
:1018C00090E080E00E94A20790E080E00C94B807CE
:1018D0000E9422130C94540C0E942D12282F892F41
:1018E00082958F70903C80F48A30B0F4843020F47C
:1018F000823090F480E008958630E1F781E0203E68
:1019000088F0213FB9F70EC08C3011F08F3091F77D
:1019100093FB882780F9089581E0203F39F018F47F
:10192000203E40F70895243F29F7FCCF0895CF9338
:10193000DF9300D000D00F92CDB7DEB70F900F909D
:101940000F900F900F90DF91CF910895CF93DF9379
:1019500000D000D000D0CDB7DEB726960FB6F894F1
:10196000DEBF0FBECDBFDF91CF9108951F93CF9300
:10197000DF93E0915C0116E080915D018E1304C05D
:10198000DF91CF911F910895CE2FD0E01E9FF001DF
:101990001124E25AFE4F408151816281738184811A
:1019A00095810E94A60CFE013196E770E5CF40912B
:1019B0008E0150918F016091900170919101809101
:1019C0009201909193010C94A60C1F93CF93DF93F7
:1019D00080919301807FC1F4809190018823A1F0D0
:1019E00080915C01C0915D0160918E0170918F01C9
:1019F0004091910150919201D62FD723DA01A09501
:101A0000B09516E0C81304C0DF91CF911F910895DF
:101A100090E04115510511F0DF3F31F401968770D8
:101A2000F1CF2A0F3B1F17C0189FF001199FF00D2F
:101A30001124E25AFE4F21812713F0CF2081261373
:101A4000EDCF22812111EACF23813481241735077C
:101A500040F3241B350B283C310500F720919301FE
:101A60002F7020612093930126E0289FF001299F89
:101A7000F00D1124ED59FE4F80818F7080618083BD
:101A80008EE891E00E942A0CDF91CF911F910C9477
:101A9000B60C9F92AF92BF92CF92DF92EF92FF92DD
:101AA0000F931F93CF93DF93CDB7DEB72B970FB66E
:101AB000F894DEBF0FBECDBF8C0185E0F801DE01DA
:101AC000179601900D928A95E1F7D8014C911196E5
:101AD0005C9111971296EC901297809191019091E0
:101AE0009201009709F46BC120918E0130918F0112
:101AF000632F62236F3F09F462C11396CD90DC908F
:101B000090909001992009F4F8C0C816D90608F4FD
:101B10003FC0F601E81BF90BCF01FF24F394883C8A
:101B2000910508F0F12C8EE8A82E81E0B82E809166
:101B30009301982F907FFF2009F4B7C0911180C0C6
:101B4000FE2C35132AC0241328C0E11026C08F7044
:101B50008061809393010E94D70CC5010E942A0CDA
:101B600080919301D80115968C938F2D2B960FB6EB
:101B7000F894DEBF0FBECDBFDF91CF911F910F91C3
:101B8000FF90EF90DF90CF90BF90AF909F9008951F
:101B9000809590958C0D9D1DC0CFCD2829F0842F68
:101BA00085238F3F09F019C180E0B82FB170DB2E7B
:101BB000E0915C0120915D0136E080FD1CC0EE20CB
:101BC000A1F280919301816080939301F12CCDCF9C
:101BD0008E2F90E03E9FF0011124E25AFE4F61816A
:101BE000651306C06081641303C062816E11E7CF84
:101BF000FC013196E770E213EBCF4F8358878F815A
:101C000098850E942D12292F22952F70903260F016
:101C1000225F2F70223078F49F7051F0F801958187
:101C2000907F31F4D12C0AC09F7011F08823D1F33A
:101C3000805E8830B8F3C8010E942A0CFD2C95CF35
:101C4000351306C0241304C0D801EE2009F47BC06C
:101C50004F8358878F8198850E946C0C882309F4E4
:101C6000B8C0EE2009F4B5C080919301803270F0C5
:101C700020918E0130918F013A8329831B82DD826E
:101C8000CC828E83CE0101960E942A0C86E0F80158
:101C9000AEE8B1E001900D928A95E1F70E94E50C63
:101CA0000E94D70CFF24F39460CF911113C07C2DB8
:101CB000DB86CA866E2D8B850E94970C8EE891E09C
:101CC0000E942A0C86E0F50111928A95E9F70E949C
:101CD000D70C4BCF3513BCCF2413BACFE110B8CFFC
:101CE000D80115968C93C8010E942A0C86E0F50154
:101CF00011928A95E9F7F92C38CFC816D90688F1E0
:101D0000B601681B790BCB01F12C883C910508F0DA
:101D100047C0FE2CEE2009F45CC0351330C02413FC
:101D20002EC08091930180FD21C0982F907FF1F00B
:101D3000D80115968C931597903F39F0982F907F86
:101D4000905F8F70892B15968C93C8010E942A0C86
:101D500086E0F801AEE8B1E001900D928A95E1F7D6
:101D6000B6CF809590958C0D9D1DCECF86E0F80165
:101D7000AEE8B1E001900D928A95E1F7F6CE4F837F
:101D800058878F8198850E946C0C81117FCF80913C
:101D90009301816080939301C8010E942A0CE5CED3
:101DA0007C2DDB86CA866E2D8B850E94970C86E083
:101DB000EEE8F1E0DF011D928A95E9F788CFEE2089
:101DC00041F04F8358878F8198850E946C0C811158
:101DD0005DCFC8010E942A0C65CF81E08E25E5CE3B
:101DE0001F93CF93DF93CDB7DEB72C970FB6F89440
:101DF000DEBF0FBECDBF4F83588769877A878B8739
:101E00009C87CE0107960E94490D882369F08A8538
:101E10009B85892B39F04F815885842F85238F3FEF
:101E200009F071C016E05FC086E0FE013796DE0162
:101E3000119601900D928A95E1F78A859B85892BF1
:101E400089F388859F8189238F3F61F320915D010C
:101E500030E0C90101968770992740915C014817CD
:101E6000190671F40E94680C10925D0110925C01D9
:101E700086E0EEE8F1E0DF011D928A95E9F7D2CF26
:101E800096E0929FD001939FB00D1124A25ABE4FAD
:101E9000FE01319601900D929A95E1F780935D01D4
:101EA0000E94B60CBFCF819FC0011124825A9E4F61
:101EB0000E94490D8823E9F0E0915C011E9FF0012A
:101EC0001124E25AFE4F40815181628173818481E5
:101ED00095810E94A60C80915C0190E0019687702C
:101EE000992780935C0180915C0190915D01891339
:101EF000DACF2C960FB6F894DEBF0FBECDBFDF91C0
:101F0000CF911F91089569857A858B859C850E9464
:101F1000A60C88CFEF92FF920F931F93CF93DF937E
:101F20008C01892B89F0F12CEE24E394E8012196B1
:101F3000F8018491843709F457C0A0F4823009F481
:101F40003EC048F48130D1F0DF91CF911F910F91C5
:101F5000FF90EF9008959CEF980F9037A8F70E949C
:101F6000A2080AC0853709F44CC09CE7980F903747
:101F700058F78F770E947E098E0116C00E5F1F4FA3
:101F8000FE01849190E2980F983060F48770FE2DE6
:101F900001C0FF0F8A95EAF78F2F0E9436130E9427
:101FA0005D1302C00E94A2088F2D815008F4BECF9D
:101FB000EFE9FFE03197F1F700C00000F6CF0E5FC8
:101FC0001F4FFE01849190E2980F983050F4877073
:101FD000FE2D01C0FF0F8A95EAF78F2F0E943C1358
:101FE000DECF0E947E09E0CF0E5F1F4FFE01C4913D
:101FF000C150D0F28FE99FE00197F1F700C00000D7
:10200000F7CF0E5F1F4FFE01F490CECF089560937F
:10201000A7017093A8018093A9019093AA010C9441
:10202000540CCF93DF9300D000D0CDB7DEB76983D7
:102030007A838B839C838091A7019091A801A091C2
:10204000A901B091AA0129813A814B815C81822B3F
:10205000932BA42BB52B8093A7019093A801A09359
:10206000A901B093AA010F900F900F900F90DF91EC
:10207000CF910C94540CCF93DF9300D000D0CDB708
:10208000DEB769837A838B839C838091A7019091CB
:10209000A801A091A901B091AA0129813A814B819F
:1020A0005C8182239323A423B5238093A70190937B
:1020B000A801A093A901B093AA010F900F900F90CF
:1020C0000F90DF91CF910C94540CCF93DF9300D0FD
:1020D00000D0CDB7DEB769837A838B839C838091F0
:1020E000A7019091A801A091A901B091AA0129810D
:1020F0003A814B815C8182279327A427B52780935F
:10210000A7019093A801A093A901B093AA010F90F1
:102110000F900F900F90DF91CF910C94540C109270
:10212000A3011092A4011092A5011092A6010C9493
:10213000540C41E050E060E070E004C0440F551FD3
:10214000661F771F8A95D2F74093A3015093A4018D
:102150006093A5017093A6010C94540C282F81E084
:1021600090E0A0E0B0E004C0880F991FAA1FBB1F39
:102170002A95D2F74091A3015091A4016091A50145
:102180007091A601842B952BA62BB72B8093A301CE
:102190009093A401A093A501B093A6010C94540CB4
:1021A00041E050E060E070E004C0440F551F661F3E
:1021B000771F8A95D2F740955095609570958091DC
:1021C000A3019091A401A091A501B091A60184233F
:1021D0009523A623B7238093A3019093A401A093F2
:1021E000A501B093A6010C94540C282F81E090E037
:1021F000A0E0B0E004C0880F991FAA1FBB1F2A955A
:10220000D2F74091A3015091A4016091A501709172
:10221000A60184279527A627B7278093A30190932B
:10222000A401A093A501B093A6010C94540CCF93E4
:10223000DF9300D000D0CDB7DEB769837A838B837C
:102240009C838091A3019091A401A091A501B091DC
:10225000A60129813A814B815C81822B932BA42B8F
:10226000B52B8093A3019093A401A093A501B093F3
:10227000A6010F900F900F900F90DF91CF910C94CB
:10228000540CCF93DF9300D000D0CDB7DEB7698375
:102290007A838B839C838091A3019091A401A09168
:1022A000A501B091A60129813A814B815C818223ED
:1022B0009323A423B5238093A3019093A401A09317
:1022C000A501B093A6010F900F900F900F90DF9192
:1022D000CF910C94540CCF93DF9300D000D0CDB7A6
:1022E000DEB769837A838B839C838091A30190916D
:1022F000A401A091A501B091A60129813A814B8149
:102300005C8182279327A427B5278093A30190930C
:10231000A401A093A501B093A6010F900F900F9078
:102320000F90DF91CF910C94540C0895E92FEE0F8C
:10233000EE0FE80F8E2F877041E001C0440F8A95A1
:10234000EAF7E695E695E69585E0E89FF001112429
:10235000EC56FE4F30E020E070E05191DF01119724
:10236000CB01022E02C0969587950A94E2F7817000
:1023700081958527842385278C932F5F3F4F2530B8
:10238000310559F70895E92FEE0FEE0FE80F9E2F54
:102390009770E695E695E69585E0E89FF0011124B3
:1023A000EC56FE4F50E040E080E0219130E0092EF5
:1023B00002C0369527950A94E2F721703327042E40
:1023C00001C0220F0A94EAF7822B4F5F5F4F45301E
:1023D000510559F70895BF92CF92DF92EF92FF9285
:1023E0000F931F93CF93DF938C01C090A301D090E4
:1023F000A401E090A501F090A6018091A701909121
:10240000A801A091A901B091AA01C82AD92AEA2A53
:10241000FB2ACFE1D0E0BC2ED701C6010C2E04C0B0
:10242000B695A795979587950A94D2F780FD0EC02B
:10243000219788F7B12C8B2DDF91CF911F910F91B0
:10244000FF90EF90DF90CF90BF900895B8018C2F50
:102450000E942804019761F3EECFCF93DF93D82F2A
:10246000C92F0E94EB116D2F7C2FDF91CF910C941F
:1024700028041F93CF93DF93162FD72F90915B01E2
:10248000992339F0862F972FDF91CF911F910C94CC
:102490002D12882391F0862F972F0E94EB11C82FC1
:1024A000682F812F9D2F0E949611612F7D2F8C2FD9
:1024B000DF91CF911F910C942804862F972F0E94B3
:1024C000C311C82FF2CF8091AB0185958595859575
:1024D00008958091AB018770089598E0899F9001DD
:1024E0001124622B6093AB010C94AE109091AB0160
:1024F000809589238093AB01282F277061F4282FC2
:10250000082E000C330B9217130629F0859585953C
:1025100085950C94D01008959091AB01977081E04F
:1025200009F480E00895909112019923E1F09091CF
:10253000010297FF18C0E82FE695E695E695EF3182
:1025400039F12091000130910101E20FF32FF11DCB
:10255000877021E030E001C0220F8A95EAF781817F
:10256000822B818308952091000130910101F901AE
:1025700032969FEF40E05191851751F09F3F19F43B
:10258000511101C0942F4F5F4E31A9F79F3F09F4BD
:102590000895290F311D97FD3A95F9018283089519
:1025A00090911201992301F19091010297FF1CC0B3
:1025B000E82FE695E695E695EF3139F12091000197
:1025C00030910101E20FF32FF11D877021E030E01F
:1025D000A90102C0440F551F8A95E2F7CA018095F0
:1025E0009181892381830895209100013091010117
:1025F000F9013296205E3F4F9191891303C0DF01AC
:1026000011971C92E217F307B9F7089581E090E063
:10261000E0910001F0910101E80FF91F108201968D
:1026200080329105A9F708959091CF01982B90934E
:10263000CF010895982F90958091CF0189238093A1
:10264000CF0108951092CF0108959091CE01982B5B
:102650009093CE010895982F90958091CE01892373
:102660008093CE0108951092CE0108959091CD01EE
:10267000982B9093CD010895982F90958091CD013E
:1026800089238093CD0108951092CD010895809300
:10269000AC0108951092AC01089520910001309191
:1026A0000101F9013196205E3F4F80E09191911137
:1026B0008F5FE217F307D1F70895E0910001F091E1
:1026C00001018091CF018083E0910001F09101012F
:1026D00080819091CE01892B8083E0910001F0915F
:1026E000010180819091CD01892B80839091AC0173
:1026F000992361F0E0910001F09101018081892B23
:1027000080830E944D1381111092AC0180910001D1
:10271000909101010C948C076DEE7EEF90E080E0CB
:102720000E94FB2060E082E090E00E94E92060E0EF
:1027300083E090E00E94E92060E084E090E00E9465
:10274000E92060E085E090E00C94E92090E080E0F2
:102750000E94E3209C0181E02D3E3E4F09F080E085
:10276000089582E090E00C94DB20682F82E090E0F6
:102770000C94E92083E090E00C94DB20682F83E048
:1027800090E00C94E92084E090E00C94DB20682F2A
:1027900084E090E00C94E92080910702843039F1C4
:1027A0001092D10188E190E020E40FB6F894A8954A
:1027B000809360000FBE2093600080E00E940904B7
:1027C00083B7817F846083BF83B7816083BF789440
:1027D000889583B78E7F83BF0FB6F894A8958091B4
:1027E0006000886180936000109260000FBE0895C1
:1027F00008950895CF930E94F8130E94BF060E9487
:10280000F913C0E08C2F0E947407811105C0CF5FBF
:10281000C530C1F7CF91089581E0FCCF0E94680CCC
:102820000E9480070C9409041F921FB61F92112466
:102830008F939F93AF93BF938091D101811113C068
:102840008091FD019091FE01A091FF01B0910002E5
:102850004196A11DB11D8093FD019093FE01A093AF
:10286000FF01B0930002BF91AF919F918F911F9094
:102870001FBE1F90189582E084BD93E095BD9AEF2E
:1028800097BD80936E0008952FB7F8948091FD0155
:102890009091FE01A091FF01B09100022FBF089519
:1028A000CF92DF92EF92FF929C014FB7F894809104
:1028B000FD019091FE01A091FF01B09100024FBF78
:1028C0006C017D01EE24FF24A90170E060E0C416D4
:1028D000D506E606F70638F0821B930BFF90EF90C3
:1028E000DF90CF9008950197F7CF1F921FB61F92E8
:1028F00011248F939F93AF93BF938091FD0190918B
:10290000FE01A091FF01B09100020196A11DB11D31
:102910008093FD019093FE01A093FF01B09300020C
:10292000BF91AF919F918F911F901FBE1F901895DF
:102930000E94841CF8942FEF87EA91E62150804092
:102940009040E1F700C0000087E090EBDC0180934D
:10295000100290931102A0931202B093130288E127
:102960009CE00FB6F894A895809360000FBE9093FA
:102970006000FFCFCF92DF92EF92FF920F931F93F1
:10298000CF93C0E0E82EF12C8C2F0E94740710E04A
:1029900000E0C82ED12CC601002E02C09595879567
:1029A0000A94E2F780FF11C0602F7C2F80E00E9424
:1029B0000C04E816F90649F481E0CF911F910F91BC
:1029C000FF90EF90DF90CF9008950F5F1F4F04307E
:1029D000110509F7CF5FC530B9F680E0EECFCF9390
:1029E000C82F8CE20E94BA14882321F08C2FCF913B
:1029F0000C94BA1480E0CF910895CF93DF9300D068
:102A000000D0CDB7DEB70E94A613811102C00E948C
:102A10008C1395E6998308C00E94BF068FE39CE95A
:102A20000197F1F700C00000A981A150A983A1116D
:102A3000F3CF89E20E94EF14811110C18AE20E9453
:102A4000EF1481110E948C1385E00E94EF14811114
:102A50000E9498140E94B1138093D00187E00E94D5
:102A6000EF14882371F08BE10E94EF14882309F49E
:102A7000D1C09091D001892F8D7F91FF826080938A
:102A8000D0018091D0010E94B5130E94C31390E041
:102A9000909302028093010280EE0E94EF1488233B
:102AA00041F090910102892F8E7F90FF8160809389
:102AB000010289E30E94EF14882341F09091010202
:102AC000892F8D7F91FF82608093010282EE0E94A8
:102AD000EF14882341F090910102892F8B7F92FFA0
:102AE00084608093010286EE0E94EF14882341F0F7
:102AF00090910102892F877F93FF88608093010264
:102B000083EE0E94EF14882341F090910102892FF7
:102B10008F7E94FF80618093010285E30E94EF1411
:102B2000882341F090910102892F8F7D95FF80626B
:102B30008093010281E30E94EF14882341F0909179
:102B40000102892F8F7B96FF80648093010281E1CF
:102B50000E94EF14882341F090910102892F97FB86
:102B600087F9805880930102809101020E94C71367
:102B700087E20E94EF1489838EE10E94EF1488237C
:102B800019F0B981B260B9838FE10E94EF148823F4
:102B900019F029812460298380E20E94EF148823A0
:102BA00019F039813860398381E20E94EF1488235B
:102BB00019F049814061498382E20E94EF14882321
:102BC00019F059815062598383E20E94EF148823DF
:102BD00019F089818064898384E20E94EF1488233C
:102BE000B1F199819068998389810E94BE133981DE
:102BF000232F30E050E040E029833A834B835C830D
:102C0000CA01B9010F900F900F900F90DF91CF91F3
:102C10000C9407108EE00E94EF14882339F09091F5
:102C2000D001892F8B7F92FF846029CF80E10E94A1
:102C3000EF149091D001882329F0892F877F93FF8B
:102C400088601DCF892F8E7F90FF816018CFA9816A
:102C5000A111CACF0E94BA13282FCBCF0F900F908B
:102C60000F900F90DF91CF9108958091D40180FF54
:102C700012C06091050185E0689FB001112475952F
:102C800067957595679560387105A8F561157105AB
:102C9000A1F1862F089581FF09C06091050185E0AB
:102CA000689FB001112475956795EDCF609105017E
:102CB00082FD0AC08091D5018823D1F09091040152
:102CC00060910501891728F085E0689FB001112403
:102CD000DACF869FB001112485E0869F9001879FFF
:102CE000300D1124692F70E0C9010E94AD20CBCFB7
:102CF00065E070E0CECF8FE7089581E00895809180
:102D0000D40180FF0CC06091030170E07595679558
:102D1000759567956115710549F1862F089581FFB5
:102D200006C06091030170E075956795F3CF6091DF
:102D3000030182FD0BC09091D5019923A1F0609110
:102D4000020180910301961738F0682F70E0603817
:102D5000710500F38FE70895899FC001112470E089
:102D60000E94AD20F4CF61E070E0D7CF81E00895FC
:102D7000803F31F40E94351681958093D8010895E3
:102D8000813F19F40E943516F8CF823F31F40E943A
:102D9000351681958093D7010895833F19F40E94D9
:102DA0003516F8CF893F29F40E947F168093D90108
:102DB00008958A3F21F40E947F168195F7CF8B3FBB
:102DC00031F40E947F1681958093DA0108958C3F3B
:102DD00019F40E947F16F8CF843F31F48091D60118
:102DE00081608093D6010895853F21F48091D601BA
:102DF0008260F7CF863F21F48091D6018460F1CFC5
:102E0000873F21F48091D6018860EBCF883F21F481
:102E10008091D6018061E5CF8D3F31F48091D4015E
:102E200081608093D40108958E3F21F48091D40174
:102E30008260F7CF8F3FB9F78091D4018460F1CFE2
:102E40009091D701803F41F48091D80187FD109285
:102E5000D801992371F00895813F29F48091D80118
:102E60001816ACF3F6CF823F81F497FFF2CF1092A1
:102E7000D7018091D8019091D901892B9091DA01E5
:102E8000892B49F71092D5010895833F19F419163B
:102E900074F3DFCF893F39F48091D9011816CCF64D
:102EA0001092D901D6CF8A3F29F48091D90187FFAA
:102EB000D0CFF6CF8B3F39F48091DA0187FFC9CFAD
:102EC0001092DA01C6CF8C3F29F48091DA011816EE
:102ED000BCF3BFCF843F31F48091D6018E7F8093C5
:102EE000D601B7CF853F21F48091D6018D7FF7CFF2
:102EF000863F21F48091D6018B7FF1CF873F21F46B
:102F00008091D601877FEBCF883F21F48091D60155
:102F10008F7EE5CF8D3F31F48091D4018E7F8093F9
:102F2000D40197CF8E3F21F48091D4018D7FF7CFCC
:102F30008F3F09F08ECF8091D4018B7FF0CF86ED4B
:102F400091E00E9497070E9444149093D3018093CC
:102F5000D20108951F93CF93DF9300D000D000D00B
:102F6000CDB7DEB78091D2019091D3010E94501469
:102F7000AC018091D5012091060130E0811106C09D
:102F8000209107019AE0299F9001112442175307CD
:102F900088F02091D701A091D801A9831091D9017F
:102FA000B091DA01BE8321110FC09A2F912B9B2B78
:102FB00009F0B2C026960FB6F894DEBF0FBECDBFA3
:102FC000DF91CF911F9108958F3F19F08F5F80930C
:102FD000D501121624F40E9435168093D7018091F2
:102FE000D70187FF05C00E94351681958093D701D0
:102FF0002981121624F40E9435168093D8018091FD
:10300000D80187FF05C00E94351681958093D801AD
:103010008091D701882309F455C03091D8013D83B0
:10302000332309F44FC0282F880F330B440B550B63
:1030300029833A834B835C83CA01B9010E94B41F80
:1030400023E333E343E35FE369837A838B839C83E6
:1030500069817A818B819C810E94182069837A839F
:103060008B839C8369817A818B819C810E947C1FE8
:103070006093D7018D81082E000C990BAA0BBB0B16
:1030800089839A83AB83BC83BC01CD010E94B41FAA
:1030900023E333E343E35FE369837A838B839C8396
:1030A00069817A818B819C810E94182069837A834F
:1030B0008B839C8369817A818B819C810E947C1F98
:1030C0006093D801111624F40E947F168093D901D1
:1030D0008091D90187FF05C00E947F16819580935A
:1030E000D9019E81191624F40E947F168093DA017B
:1030F0008091DA0187FF05C00E947F168195809339
:10310000DA0126960FB6F894DEBF0FBECDBFDF9171
:10311000CF911F910C949F178F3F09F057CF68CF25
:1031200085E0E6EDF1E0DF011D928A95E9F7109266
:10313000D5011092D40108958091FB010895CF9399
:10314000DF9300D00F92CDB7DEB720910702243075
:1031500019F523E029838A839B832093E9008FEF6D
:103160009091E800815095FD06C095ED9A95F1F794
:1031700000008111F5CF8091E80085FF0DC050E07F
:1031800040E063E070E0CE0101960E94FC1A80915D
:10319000E8008E778093E8000F900F900F90DF91FA
:1031A000CF910895CF93DF9300D00F92CDB7DEB7C4
:1031B0009C0180910702843031F582E08983205898
:1031C00031093B832A8383E08093E9008FEF90915C
:1031D000E800815095FD06C095ED9A95F1F7000045
:1031E0008111F5CF8091E80085FF0DC050E040E0EF
:1031F00063E070E0CE0101960E94FC1A8091E80025
:103200008E778093E8000F900F900F90DF91CF9111
:103210000895209107022430F1F422E02093E90080
:103220002FEF3091E800215035FD06C035ED3A957D
:10323000F1F700002111F5CF2091E80025FF0BC028
:1032400050E040E065E070E00E94FC1A8091E800E8
:103250008E778093E8000895CF93DF93D82FC92FFE
:10326000809107028430F1F4909112019923E9F0E2
:103270009091010297FF19C08093E9008FEF909120
:10328000E800815095FD06C095E19A95F1F70000A0
:103290008111F5CF8091E80050E040E060E270E0FD
:1032A00085FD1AC0DF91CF91089581E08093E900F8
:1032B0008FEF9091E800815095FD06C095ED9A95AD
:1032C000F1F700008111F5CF8091E80085FFEACF8A
:1032D00050E040E068E070E08D2F9C2F0E94FC1AC7
:1032E0008091E8008E778093E80080E2ED2FFC2F3C
:1032F000ABEDB1E001900D928A95E1F7D3CF8091CB
:103300000602811109C00E94841C0E94E11C809168
:10331000E20084608093E20008951092060208950E
:10332000089508950C940E1442E061EC81E00E942F
:10333000001C42E061EC82E00E94001C42E061EC73
:1033400083E00E94001C42E261EC84E00C94001CCB
:1033500080910902893089F148F4823009F494C0DF
:10336000833009F44FC0813041F008958A3009F468
:103370007BC08B3009F461C0089580910802813AC6
:1033800009F03FC08091E800877F8093E80080913A
:103390000C0290910D02892B61F460E28BED91E0BB
:1033A00070E00E944B1B8091E8008B778093E800CF
:1033B000089560E090E080E0F3CF809108028132D0
:1033C00001F580910C0290910D02009711F0039786
:1033D000C1F48091E800877F8093E8008091E80045
:1033E00082FF0BC08091F1008093FB018091E80087
:1033F0008B778093E8000C94341C80910702811134
:10340000EDCF089580910802813AD9F780910C029E
:1034100090910D02892BA9F78091E800877F809316
:10342000E8008091E80080FFFCCF8091120180933A
:10343000F1008091E8008E77DCCF80910802813224
:1034400001F780910C0290910D02892BD1F68091A9
:10345000E800877F8093E8000E94341C80910A0274
:10346000809312010C94680C80910802813249F615
:103470008091E800877F8093E8000E94341C80914F
:103480000B028093FC01089580910802813A09F0B3
:10349000B8CF8091E800877F8093E8008091E800B2
:1034A00080FFFCCF8091FC01C2CF84B7877F84BFAF
:1034B0000FB6F894A89580916000886180936000B1
:1034C000109260000FBE80E880936100109261004E
:1034D0000E94CF070E94841C0E94E11C8091E200A0
:1034E00084608093E20078940E94611F0E94D1075B
:1034F00088E091E00E947B0780910702853019F0F7
:103500000E94D707F9CF0E94CC138091050288232F
:1035100099F30E94FA13882379F30E94E61AECCFFC
:103520009C01DA01892F992783309105C1F068F455
:103530008130910509F445C0029761F48DE690E071
:103540002CE533E02D933C93089581329105E1F011
:10355000829739F190E080E030E020E0F3CFC901BC
:103560009927213059F08230910559F0E8E5F3E0D0
:10357000892B81F7849190E09F01E4CFE0E4F3E0B0
:10358000F9CFECE2F3E0F6CF643020F7E62FF0E07D
:10359000EE0FFF1FE85DFE4F2081318189E090E052
:1035A000D1CF6430B8F670E0FB01EE0FFF1FE05E94
:1035B000FE4F20813181645E7E4FFB01808190E06F
:1035C000C1CF82E190E029EC33E0BCCF80E189BD3E
:1035D00082E189BD09B400FEFDCF8091D8008F7DC6
:1035E0008093D8008091E00082608093E000809119
:1035F000E00081FDFCCF0895AF92BF92CF92DF92A1
:10360000FF920F931F93CF93DF936C01EB018A011D
:103610000E94531CF82E811123C00115110539F0A9
:10362000F80180819181C81BD90BC80ED91EB12C1D
:10363000A12C2097A9F08091E80085FD22C08091FF
:10364000E8008E778093E80001151105A1F0F801DC
:1036500080819181A80EB91EB182A08285E0F82EEA
:103660008F2DDF91CF911F910F91FF90DF90CF9021
:10367000BF90AF9008950E94531C8823D1F2F82E7A
:10368000EFCFF60181916F018093F1002197FFEF59
:10369000AF1ABF0ACECFFC01CB0120910E023091B0
:1036A0000F022617370790F0009729F42091E800C1
:1036B0002E772093E80040E0009751F4411108C0B4
:1036C0008091E80082FF31C080E00895C901F3CF06
:1036D000209107022223A9F12530A9F12091E800C9
:1036E00023FD2DC02091E80022FDEACF2091E800C3
:1036F00020FFE2CF3091F3002091F200009719F003
:103700002830310558F041E02830310509F040E01B
:103710002091E8002E772093E800CECF419140938E
:10372000F10001972F5F3F4FE9CF80910702882377
:1037300041F0853041F08091E80083FFC1CF81E006
:10374000089582E0089583E00895FC01CB01209163
:103750000E0230910F022617370790F0009729F4D8
:103760002091E8002E772093E80040E0009751F484
:10377000411108C08091E80082FF32C080E00895C6
:10378000C901F3CF209107022223B1F12530B1F115
:103790002091E80023FD2EC02091E80022FDEACF11
:1037A0002091E80020FFE2CF3091F3002091F20059
:1037B000009719F02830310558F041E028303105E4
:1037C00009F040E02091E8002E772093E800CECF6A
:1037D00044914093F100319601972F5F3F4FE8CF1E
:1037E00080910702882341F0853041F08091E80004
:1037F00083FFC0CF81E0089582E0089583E00895BB
:10380000982F973028F08F708093E90081E0089519
:103810009093E900242F762F50E0981731F07091A3
:10382000EC002091ED005091F00021FD02C09F5F5F
:10383000E8CF3091EB003E7F3093EB003091ED000C
:103840003D7F3093ED003091EB0031603093EB0021
:103850007093EC002093ED005093F0002091EE0067
:1038600027FDE5CF80E008958091080287FF13C00F
:103870008091E80082FF06C08091E8008B778093FA
:10388000E80004C0809107028111F2CF0895809171
:1038900007028823D9F38091E80080FFF8CF809158
:1038A000E8008E77ECCF2091E4003091E50095E6BA
:1038B000A9012091EC00822F817020FF06C0809129
:1038C000E80080FF06C080E008952091E80022FD16
:1038D0001AC080910702882389F0853089F0809191
:1038E000EB0085FD0FC02091E4003091E500421708
:1038F0005307F9F29150E1F684E0089582E00895CB
:1039000083E0089581E008950E94F21C0E94FA1C51
:10391000E0EEF0E0808181608083E8EDF0E080817E
:103920008F77808319BCA7EDB0E08C918E7F8C934C
:1039300080818F7E80831092060208950F931F93DB
:10394000CF93DF930E94F21C0E94FA1CC8EDD0E0D6
:1039500088818F77888388818068888388818F7D3C
:10396000888319BC1092070210920302109205027C
:103970001092040200EE10E0F80180818B7F8083BA
:1039800088818160888342E060E080E00E94001CC2
:10399000E1EEF0E080818E7F8083E2EEF0E08081D6
:1039A00081608083808188608083F80180818E7F40
:1039B0008083888180618883DF91CF911F910F91EF
:1039C0000895E8EDF0E080818F7E8083E7EDF0E000
:1039D00080818160808384E082BF81E080930602E1
:1039E0000C949E1CE8EDF0E080818E7F8083109225
:1039F000E20008951092DA001092E10008951F92FB
:103A00000F920FB60F9211242F933F934F935F9312
:103A10006F937F938F939F93AF93BF93EF93FF9396
:103A20008091E10082FF0BC08091E20082FF07C01D
:103A30008091E1008B7F8093E1000E94601F809164
:103A4000DA0080FF19C08091D80080FF15C08091F6
:103A5000DA008E7F8093DA008091D90080FF94C0D5
:103A600080E189BD82E189BD09B400FEFDCF81E01E
:103A7000809307020E947F198091E10080FF19C0A6
:103A80008091E20080FF15C08091E2008E7F8093DC
:103A9000E2008091E20080618093E2008091D80092
:103AA00080628093D80019BC85E0809307020E9451
:103AB00091198091E10084FF29C08091E20084FF88
:103AC00025C080E189BD82E189BD09B400FEFDCF3A
:103AD0008091D8008F7D8093D8008091E1008F7E07
:103AE0008093E1008091E2008F7E8093E2008091DC
:103AF000E20081608093E20080910302882309F450
:103B000049C084E0809307020E9492198091E100ED
:103B100083FF29C08091E20083FF25C08091E100EE
:103B2000877F8093E10082E0809307021092030276
:103B30008091E1008E7F8093E1008091E2008E7F92
:103B40008093E2008091E20080618093E20042E095
:103B500060E080E00E94001C8091F000886080930B
:103B6000F0000E949019FF91EF91BF91AF919F914A
:103B70008F917F916F915F914F913F912F910F9016
:103B80000FBE0F901F90189519BC109207020E944B
:103B90008D1972CF8091E30087FD02C081E0B2CF22
:103BA00083E0B0CF1F920F920FB60F9211242F9384
:103BB0003F934F935F936F937F938F939F93AF93B5
:103BC000BF93CF93DF93EF93FF93D091E900DF7022
:103BD0008091EC00C82FC17080FDC0E81092E90010
:103BE0008091F000877F8093F00078940E94161EE9
:103BF0001092E9008091F00088608093F000CD2B56
:103C0000CF70C093E900FF91EF91DF91CF91BF9109
:103C1000AF919F918F917F916F915F914F913F9164
:103C20002F910F900FBE0F901F9018951F93CF9359
:103C3000DF93CDB7DEB7AA970FB6F894DEBF0FBEFD
:103C4000CDBF88E092E0FC0101962091F100208335
:103C500022E080319207B9F70E94A8198091E8000C
:103C600083FF16C180910802909109029A3008F0F2
:103C70000FC1E92FF0E0EB5CFE4D0C94C1208038C1
:103C800081F0823809F004C180910C028F7080931A
:103C9000E9008091EB0085FB882780F91092E9000C
:103CA00006C080910402909105029111826090916A
:103CB000E800977F9093E8008093F1001092F10064
:103CC0008091E8008E77E0C0882309F4CEC082306E
:103CD00009F0DEC080910A028111D1C080910C02EE
:103CE0008F7009F4D5C08093E9002091EB0020FF8C
:103CF000C6C0933031F48091EB0080628093EB007A
:103D0000BEC09091EB0090619093EB0021E030E019
:103D100001C0220F8A95EAF72093EA001092EA0088
:103D20008091EB008860EACF8111B2C010910A0245
:103D30001F778091E3008078812B8093E30080914E
:103D4000E800877F8093E8000E94341C8091E8009F
:103D500080FFFCCF8091E30080688093E30082E0E5
:103D6000111183E08093070293C08058823008F0DD
:103D70008FC080910A0290910B028C3D23E0920744
:103D8000A1F583E08A838AE289834FB7F894DE0144
:103D9000139620E03EE051E2E32FF0E0509357000D
:103DA000E49120FF03C0E295EF703F5FEF708E2F2C
:103DB00090E0EA30C0F0C7968D939D932F5F243139
:103DC00059F74FBF8091E800877F8093E8006AE24F
:103DD00070E0CE0101960E944B1B8091E8008B772A
:103DE0008093E80055C0C096E7CFAE014F5F5F4FAC
:103DF00060910C020E94901ABC01892B09F448C002
:103E00008091E800877F8093E80089819A810E94F1
:103E1000A51BE3CF8038E1F58091E800877F809390
:103E2000E800809103028093F1004ACF811130C0F5
:103E300090910A02923060F58091E800877F80932C
:103E4000E800909303020E94341C809103028823AF
:103E500011F084E005C08091E30087FDFACF81E096
:103E6000809307020E94941913C080910A02813046
:103E700079F481E0933009F080E08093050210929C
:103E8000E9008091E800877F8093E8000E94341C5D
:103E90008091E80083FF0AC08091E800877F8093CB
:103EA000E8008091EB0080628093EB00AA960FB649
:103EB000F894DEBF0FBECDBFDF91CF911F91089563
:103EC0000895CF93809107028823A1F0C091E90063
:103ED000CF709091EC00892F817090FD80E8C82B05
:103EE0001092E9008091E80083FD0E94161ECF70B9
:103EF000C093E900CF9108950E94831F6894B11187
:103F00000C94122008950E94F71F88F09F5798F094
:103F1000B92F9927B751B0F0E1F0660F771F881FCE
:103F2000991F1AF0BA95C9F714C0B13091F00E94E8
:103F30001120B1E008950C941120672F782F882765
:103F4000B85F39F0B93FCCF3869577956795B3950F
:103F5000D9F73EF490958095709561957F4F8F4F7E
:103F60009F4F0895E89409C097FB3EF49095809583
:103F7000709561957F4F8F4F9F4F9923A9F0F92F2F
:103F800096E9BB279395F695879577956795B795AD
:103F9000F111F8CFFAF4BB0F11F460FF1BC06F5F93
:103FA0007F4F8F4F9F4F16C0882311F096E911C0A5
:103FB000772321F09EE8872F762F05C0662371F0C6
:103FC00096E8862F70E060E02AF09A95660F771FDA
:103FD000881FDAF7880F9695879597F9089557FD0A
:103FE0009058440F551F59F05F3F71F04795880F67
:103FF00097FB991F61F09F3F79F0879508951216FE
:1040000013061406551FF2CF4695F1DF08C01616A9
:1040100017061806991FF1CF86957105610508945A
:104020000895E894BB2766277727CB0197F9089571
:104030000E942B200C949C200E948E2038F00E941D
:10404000952020F0952311F00C9485200C948B2062
:1040500011240C9412200E94EF1F70F3959FC1F35E
:10406000950F50E0551F629FF001729FBB27F00D26
:10407000B11D639FAA27F00DB11DAA1F649F66277B
:10408000B00DA11D661F829F2227B00DA11D621FCA
:10409000739FB00DA11D621F839FA00D611D221F84
:1040A000749F3327A00D611D231F849F600D211D68
:1040B000822F762F6A2F11249F5750409AF0F1F0EB
:1040C00088234AF0EE0FFF1FBB1F661F771F881F54
:1040D00091505040A9F79E3F510580F00C948520E7
:1040E0000C9412205F3FE4F3983ED4F386957795C5
:1040F0006795B795F795E7959F5FC1F7FE2B880FFA
:10410000911D9695879597F9089597F99F6780E88F
:1041100070E060E008959FEF80EC089500240A9419
:104120001616170618060906089500240A94121692
:104130001306140605060895092E0394000C11F4C5
:10414000882352F0BB0F40F4BF2B11F460FF04C072
:104150006F5F7F4F8F4F9F4F089597FB072E16F489
:10416000009407D077FD09D00E94C72007FC05D036
:104170003EF4909581959F4F0895709561957F4F7E
:104180000895EE0FFF1F0590F491E02D0994AA1BEE
:10419000BB1B51E107C0AA1FBB1FA617B70710F032
:1041A000A61BB70B881F991F5A95A9F78095909564
:1041B000BC01CD010895F999FECF92BD81BDF89A59
:1041C000992780B50895A8E1B0E042E050E00C9452
:1041D0000321262FF999FECF92BD81BDF89A019750
:1041E00000B4021639F01FBA20BD0FB6F894FA9A3F
:1041F000F99A0FBE08950196272F0E94EA200C9489
:10420000E920DC01CB01FC01F999FECF06C0F2BD2B
:10421000E1BDF89A319600B40D9241505040B8F784
:104220000895F894FFCF74038003840388038C03FC
:104230009003940398039C03A003A403A803AC0376
:10424000B003B403B803BC03C003130A130A6B0A18
:104250006B0AAF0ACB0A430A430AD60A430A9E0BEB
:104260009E0B090C430A430A120C3F1E641E481F92
:0E427000641E481F941EB51E481F0A1F161F0D
:10427E00AD012808140A321E9C182C190919D218DF
:10428E009F1801C63435F49190946697404D363997
:10429E0097044A041404DB036E038703A003B903D7
:00000001FF
