:020000040800F2
:10000000B00800200D020008670C00086109000814
:10001000650C0008BD020008CB19000800000000B4
:100020000000000000000000000000007D0F00083C
:100030008907000800000000210E0008891600084A
:1000400027020008270200082702000827020008EC
:1000500027020008270200082702000827020008DC
:1000600027020008270200082702000827020008CC
:1000700027020008270200082702000827020008BC
:1000800027020008270200082702000827020008AC
:100090003519000827020008270200082702000877
:1000A000270200082702000827020008270200088C
:1000B000270200082702000827020008270200087C
:1000C000270200082702000827020008270200086C
:1000D00027020008DD160008270200082702000892
:1000E00027020008270200088717000827020008D7
:1000F000270200082702000827020008270200083C
:10010000270200082702000827020008270200082B
:10011000270200082702000827020008270200081B
:10012000270200082702000827020008270200080B
:1001300000F002F800F05AF80AA090E8000C82449F
:100140008344AAF10107DA4501D100F04FF8AFF27C
:10015000090EBAE80F0013F0010F18BFFB1A43F0A5
:1001600001031847F81A0000181B00000A444FF05A
:10017000000C10F8013B13F0070408BF10F8014B06
:100180001D1108BF10F8015B641E05D010F8016B4B
:10019000641E01F8016BF9D113F0080F1EBF10F8AF
:1001A000014BAD1C0C1B09D16D1E58BF01F801CBD2
:1001B000FAD505E014F8016B01F8016B6D1EF9D555
:1001C0009142D6D37047000000230024002500266A
:1001D000103A28BF78C1FBD8520728BF30C148BFAA
:1001E0000B6070471FB51FBD10B510BD00F033F890
:1001F0001146FFF7F7FF01F067FC00F051F803B478
:10020000FFF7F2FF03BC01F0F7FB0000094880474D
:1002100009480047FEE7FEE7FEE7FEE7FEE7FEE7E8
:10022000FEE7FEE7FEE7FEE704480549054A064B00
:10023000704700008D16000831010008B002002050
:10024000B0080020B0040020B004002070477047C0
:10025000704770477047754600F02CF8AE460500B1
:100260006946534620F00700854618B020B5FFF7D1
:10027000DBFFBDE820404FF000064FF000074FF0D5
:1002800000084FF0000B21F00701AC46ACE8C009B4
:10029000ACE8C009ACE8C009ACE8C0098D467047BD
:1002A00010B50446AFF300802046BDE81040FFF7CC
:1002B000A6BF0000004870474C020020FEE7C1B214
:1002C000000A40EA012070472DE9F84F0020ADF800
:1002D0000000DFF834A14BF6BF7648F280074A4DA4
:1002E0004A4C40F68F7848F60F7BDFF824910AF1EC
:1002F000440A31E00888474A10F00F00107034D0EB
:10030000454901EB8001D1F8002CADF80020BDF883
:10031000002012040BD5D1F8002C02EA0802C1F823
:10032000002C3E4901EB800050F8040C8047BDF8DA
:100330000000000610D537483749007801EB8001EE
:10034000D1F8002C02EA0B02C1F8002C344901EB71
:10035000800050F8040C8047DAF800004946A9F8FC
:1003600000000004C6D4BDE8F88F286820802088EB
:1003700000F030006080208800F440502080286821
:10038000304080F4005080F0200038432860088816
:10039000C006286815D400EA0B00286000F0E2FAD5
:1003A00026E02188890401D580F400506188C906BF
:1003B00026D46188890601D580F020003843286062
:1003C000D1E7ADF80000BDF80000000506D52868AB
:1003D00000EA0800286000F021FF09E0BDF80000F5
:1003E0000004B9D5286800EA0800286000F0E4FCA1
:1003F000286821883040C904D3D580F48050D0E7E4
:1004000080F01000D5E70000005C00402E000020C6
:100410005A0000201E0000200050004080000020F4
:1004200064000020810008480844D0F8001C4904FA
:1004300009D5D0F8001C48F68F7211404CF28002AA
:100440001143C0F8001C704700500040810008486C
:100450000844D0F8001C490609D5D0F8001C48F61D
:100460008F72114048F2C0021143C0F8001C70475F
:1004700000500040810006480144D1F8000C48F6C5
:100480008F62104048F280021043C1F8000C7047A0
:10049000005000402DE9F047DFF89480254F4FF0E1
:1004A0003009D8F8001001F11005088A0E7A08B951
:1004B000042E04D0AC88A04215D8042614E01E48AF
:1004C0000178012903D00726102038802BE01B4A31
:1004D000002112681A4B120403EBD2325160A7F8C4
:1004E000009001701FE00226844200D90446A968EA
:1004F000204688478246002000F00AFA014622463C
:10050000504601F063FA2146002000F0CFFD288814
:10051000001B2880688820446880A7F8009009495B
:100520004FF440500880D8F800000672BDE8F0870C
:1005300020000020300000201A000020505C004005
:10054000006000402E0000202DE9F047224EDFF829
:100550008C803027356835F8100FA968A9B100B331
:10056000AC88844200D904462046884781462888C2
:10057000001B2880688820446880002000F0A8F9CB
:1005800001462246484600F03BFC288848B1144901
:100590004FF4405008800021084600F087FDA8F87D
:1005A00000702888A988884201D3032001E020B187
:1005B000052031680872BDE8F087316806200872AE
:1005C000084900200968084A090402EBD131486053
:1005D000A8F80070EFE700002000002030000020A5
:1005E0002E000020505C004000600040F8B55D4CDB
:1005F0005D4D09262068002729684278062A05D023
:10060000AAB1082A4DD00A2A50D06BE002785206CF
:1006100068D18078012804D0022804D0032804D0AF
:1006200060E0C96956E0096A54E0496A52E04288CC
:10063000B2BBC288022A55D102798ABB027853061E
:1006400001D1838833B102F07F02012A04D0022A4B
:100650000CD047E045493DE08A6940790021904748
:10066000F0B92068807A0028F4D13BE0417901F0AC
:100670000F0001F070020B063D4901EB8001D1F83B
:10068000001C03D5C1F30111090102E0C1F30131DE
:100690000903384B1B78834224D90AB90029D9D1E0
:1006A00020E0007840061DD1334913E0027802F0C3
:1006B0007F02012A16D1827AA2B1428892B90279C8
:1006C00082B9C288012A0DD18A69407900219047F8
:1006D00040B92A4931B120684782816100208847AA
:1006E000002006E0296820680969407888470328C7
:1006F00013D021680A8AA2F57F43FF3B0BD0022862
:100700000ED06AB10878000626D5C88800908242CB
:100710000AD9088218E00E72F8BD20680672F8BD8A
:100720004FF008000872F8BD0ED22868144B90F8FC
:100730002C00824201D21F7006E0B2FBF0F400FBF5
:10074000142008B901201870286890F82C008882BD
:10075000BDE8F840FFF79EBE032008720949000378
:100760000880F8BD2000002024000020ED130008C0
:10077000005000409C00002081130008C5130008B1
:100780001A0000202E0000207047704700B591B07D
:10079000012000F0ADF8C2B2D821684600F030FB6D
:1007A000012000F061FC11B000BD000001490860AB
:1007B000704700001404014030B51A49837902687B
:1007C00053B30B6893430B600A1D13680468A3437B
:1007D000136002790A441368046823431360114AC2
:1007E000083213680468A3431360131D1C6805686E
:1007F000AC431C604479102C05D021440A68006881
:1008000002430A6030BD1168046821431160196811
:1008100000680143196030BD0079084401689143C4
:10082000016030BD00040140F0B5CA78002502F037
:100830000F03D20601D58A7813430A784FF00F0EC2
:1008400012F0FF0F4FF001021CD004680F8802FA6B
:1008500005F63740B74211D14FEA850C0EFA0CF776
:1008600024EA070703FA0CF43C43CF78282F02D080
:10087000482F02D002E0466100E006616D1C082DA1
:10088000E4D304600C88FF2C1ED944685FF0000696
:1008900006F1080702FA07F50F882F40AF420FD183
:1008A0004FEA860C0EFA0CF7BC4303FA0CF73C43F4
:1008B000CF78282F00D14561CF78482F00D105612E
:1008C000761C082EE4D34460F0BD0161704700003F
:1008D0000549096889B201EBC000044901EB4000F9
:1008E000008980B270470000505C0040006000400A
:1008F0000549096889B201EBC000044901EB4000D9
:100900008089C0F309007047505C004000600040DF
:100910000449096889B201EBC000034931F81000AD
:1009200080B27047505C0040006000400A4810B53B
:100930000168001D0468001D006808180BD008221B
:10094000064900F03DF8054920460422BDE8104064
:10095000103100F035B810BDE8F7FF1F3E00002051
:10096000FEE7000010B5134C2068017A022904D07C
:10097000042902D0062905D015E0FFF78BFD206879
:10098000007A11E04178052909D10178490606D19C
:10099000C07800F0FDFA08480068006A8047074800
:1009A000006880688047082021680872BDE8104010
:1009B00000F038BA20000020280000202400002089
:1009C000F0B500230A24302537261F4611E000BF6A
:1009D000B4EB107F02D905EB107C01E006EB107C34
:1009E00001F813C001EB430C00015B1C8CF8017093
:1009F000DBB29342ECD3F0BD124910B50A68062869
:100A0000117801F07F0103D1012901D1537913B18C
:100A100021290AD013E09078222802D0212802D080
:100A20000DE0094904E0094902E0032807D108491B
:100A300029B10020916150828847002010BD02201A
:100A400010BD000020000020950A00086D0A000873
:100A5000790A0008014900F0A7BC0000AC000020A2
:100A6000014900F0A1BC0000A4000020014900F0F1
:100A70009BBC0000BC00002008B10448704704493A
:100A8000012009680882002070470000A0000020B3
:100A900020000020014900F087BC0000B4000020C5
:100AA00005490968C978042901D900207047034A1B
:100AB00002EBC10100F078BC20000020F40000200F
:100AC00009B9002800D002207047000006490968D3
:100AD000097801F07F01212901D10B2801D00220E2
:100AE000704700F091B8000020000020294810B5A0
:100AF000006800218172C1722749C97941720020C2
:100B000000F03EFA4FF40071002000F007FB1021C6
:100B1000002000F0D9FA1821002000F05DFA5821D9
:100B2000002000F0B3FA0020FFF7A4FC1B4890F867
:100B30002C10002000F060FA002000F095FA4FF42D
:100B4000C061012000F0EAFA4FF48071012000F04A
:100B50009DFA0821012000F0A9FA0021012000F0EF
:100B60006BFA2021012000F0AFFAD821012000F01B
:100B700033FA0121084600F03FFA4FF440510120BA
:100B800000F05AFA002000F003FA0549012008603D
:100B900010BD000020000020AA1B0008C400002097
:100BA000380100207CB50DF1180C9CE870008DF820
:100BB000000000208DF801008DF802108DF804303F
:100BC0008DF805408DF803208DF806508DF80760EC
:100BD00008226946812000F0E5FE012000F08CFA31
:100BE0007CBD00000348807A002802D0024905201D
:100BF00008607047100200203801002001490420DD
:100C00000860704738010020034804490068C07834
:100C1000086000207047000020000020A000002095
:100C20007047704710B5FFF781FE05480024006843
:100C3000847200F019F900F0A5FE0248046010BDAE
:100C400020000020380100200448817A044809B1BE
:100C5000052100E00121016000F018BD1002002014
:100C600038010020FEE770477047000070B50F2381
:100C7000C47801780122F4B1144C2468457804F456
:100C8000E064C4F5E064240AC4F10406E340847817
:100C9000B5401C402C4301F1E021230181F80034D0
:100CA000007800F01F018A404009800000F1E02038
:100CB000C0F8002170BD01F01F008240480980008B
:100CC00000F1E020C0F8802170BD00000CED00E0D4
:100CD0000249084302490860704700000000FA0515
:100CE0000CED00E070B52F4D2868017844784A0675
:100CF00006D001F07F00012828D002282BD035E053
:100D0000092C06D0052C07D0032C0ED0012C14D0B2
:100D10002CE000F0B5FB28E0C1787F292ED881783F
:100D200061BB818851BB807A27E0C17801291DD140
:100D30008088D8B900F0C0FB17E0C178012915D12F
:100D4000818899B9407A80060AD40FE00B2C0DD126
:100D500000F008FC09E0012C02D0032C03D005E0D0
:100D600000F090FA01E000F0B9FB58B10E492046BE
:100D7000096849698847032802D018B108200DE0A6
:100D800009200BE0094A062000211268084B1204D2
:100D900003EBD2325160074A302111802968087272
:100DA00070BD00002000002024000020505C0040A6
:100DB000006000403000002010B50F4C2068007A21
:100DC000022811D004280FD0032804D0052802D00F
:100DD000072805D008E0FFF7B7FB2068007A04E099
:100DE00006480068C0688047082021680872BDE88E
:100DF000104000F017B80000200000202400002060
:100E0000064B521C520803EB410105D031F8043B5C
:100E100020F8023B521EF9D17047000000600040EC
:100E2000704700000C4810B590F82C10002000F01E
:100E3000E3F80A480068007A082802D0092809D097
:100E400006E007494FF480500880064910200880CA
:100E5000002010BD012010BDC40000202000002093
:100E60002E000020300000200648012101600021F2
:100E7000054A0160031D19604FF4E05111800160C3
:100E800000207047405C00402C000020044A0029EC
:100E9000D16901D0014300E08143D1617047000076
:100EA00000100240044A0029916901D0014300E08A
:100EB0008143916170470000001002400149C1F870
:100EC000D8007047000042422DE9F041214C07282C
:100ED00000D0207022781F4D0627052104261E48C9
:100EE000062A0BD2DFE802F0030C11161E276868F1
:100EF00010B12170BDE8F08100F030F82770F9E7FB
:100F000000F02CF82670012022E0022060700320FF
:100F10002070EFE76078401E607060780028E9D1AB
:100F20002670E7E7026892B242F010020260217078
:100F30000A206070DEE76178491E617061780029DF
:100F4000D8D1016889B221F010010160277000201A
:100F50006860CFE740010020405C004010B5064CBF
:100F6000206880B220F004002060FFF76DFE4FF48F
:100F70003F40206010BD0000405C00407047000012
:100F8000024920F00700086070470000505C0040F4
:100F9000F0B50E490E4D48F68F770B78002148F2D8
:100FA000800C0BE0CEB205EB8604D4F8002C3A405E
:100FB000324342EA0C02C4F8002C491C9942F1D396
:100FC000044940F080000860F0BD00009C00002053
:100FD000005000404C5C0040054A21F001011268BD
:100FE00092B202EBC000034A02EB400081607047FE
:100FF000505C0040006000400D4A12683E2992B2E9
:1010000002EBC0000B4A02EB400209D94809C906AD
:1010100001D1401E80B24FF4004141EA802004E03B
:101020004808C90700D0401C8002106070470000CB
:10103000505C00400C60004082000A480244D2F834
:10104000000C4BF68F731840CB0401D580F4805010
:10105000890401D580F4005048F280010843C2F8A9
:10106000000C704700500040810007480144D1F84F
:10107000000C4BF68F72104080F4405048F2800212
:101080001043C1F8000C704700500040054A21F0A1
:101090000101126892B202EBC000034A42F810103C
:1010A00070470000505C004000600040044A126835
:1010B00092B202EBC000034A02EB4000416070476D
:1010C000505C00400060004082000A480244D2F8B0
:1010D000000C48F6BF731840CB0601D580F0100015
:1010E000890601D580F0200048F280010843C2F84B
:1010F000000C704700500040810007480144D1F8BF
:10110000000C48F6BF72104080F0300048F28002B8
:101110001043C1F8000C70470050004082000548A1
:101120000244D2F8000C48F68F1318400843C2F866
:10113000000C7047005000400CB50021264801917A
:101140000091026842F4803202604FF4A0630268AA
:1011500002F400320092019A521C0192009A12B9D4
:10116000019A9A42F3D10268920333D5012100918A
:101170001A490A6842F010020A600A6822F0030263
:101180000A600A6842F002020A60416841604168F0
:101190004160416841F480614160416821F47C1103
:1011A0004160416841F4E8114160016841F080719B
:1011B000016001688901FCD5416821F003014160AB
:1011C000416841F0020141604168C1F38101022997
:1011D000FAD10CBD00910CBD00100240002002406D
:1011E00010B501210807FFF751FE06484FF4802192
:1011F00001600821417101218171BDE81040FFF7B4
:10120000DBBA00003400002010B50020FFF756FEC6
:101210000121BDE81040C805FFF738BE70B516487B
:101220000068174D0004C10B14480144098989B2B4
:1012300000EB41042868017A09290FD02178017058
:1012400061784170A088FFF73AF8296848802089C2
:10125000FFF735F829688880A089C88028680121AF
:101260000172C08828B1FFF7C1F9BDE87040FFF7EF
:10127000D9BDFFF737FDF8E7505C00400060004043
:10128000200000202DE9F04138480068017811F075
:101290007F0102D0022905D066E0417A01F0DF012A
:1012A00041724EE0418800295ED10179F1BB41795C
:1012B000304D21F080040A0605EB84022C4BD2F855
:1012C000002C03D5C2F30112120102E0C2F3013275
:1012D00012031E782346A64246D93AB3807A28B331
:1012E00008064FEA84000ED52844D0F8000CC0F35D
:1012F0000110012821D11846FFF7A8F82046302117
:10130000FFF7E2FE19E04619D6F8000CC0F30130F1
:10131000012812D14BF68F7748F28008A4B1184605
:10132000FFF780F8D6F8000C384000E01CE080F4AD
:10133000405040EA0800C6F8000C0F4800684069B9
:1013400080470020BDE8F0810C4890F82C10002068
:10135000FFF752FED5F8000C384080F4405040EAC8
:101360000800C5F8000CE8E70220EBE720000020A9
:101370009C0000200050004028000020C4000020F5
:1013800010B5074C30B107480068006880472068F6
:101390000A3010BD216801200882002010BD000025
:1013A0002000002028000020054A13685A8A10B146
:1013B0000868104470478888801A18820020704797
:1013C0002000002010B5074C30B107480068806845
:1013D000804720680C3010BD216801200882002061
:1013E00010BD00002000002028000020204910B57A
:1013F000096860B11F48002202800A7853060AD0AB
:1014000002F07F02012A16D0022A16D001E0022043
:101410000882002010BD497A8A06027802D542F07F
:10142000020201E002F0FD0249060270D1B211D4BD
:1014300001F0FE0110E00F4810BD4A7911071306B4
:101440000D4A02EB9161D1F8001C07D5C1F30111DF
:1014500006E0017841F00101017003E0C1F30131C0
:101460000129F6D00548006800698047E3E70000DD
:10147000200000201C000020005000402800002018
:101480000A4810B500680A4AC1785278914203D8D8
:1014900082780AB982880AB1022010BD817205489B
:1014A000006840688047002010BD00002000002038
:1014B0009C00002028000020064810B50068417AF2
:1014C00041F02001417204480068C0698047002053
:1014D00010BD0000200000202800002070B51D482D
:1014E0001D4D0368597921F0800005EB80000C0642
:1014F000D0F8004C21F0800203D5C4F3011424017C
:1015000002E0C4F301342403144D2D78954210D920
:101510005A8872B96CB19A7A5AB10906D0F8001C8F
:1015200048F2800207D548F6BF73194081F01001D8
:1015300006E0022070BD4BF68F73194081F4805194
:101540001143C0F8001C06480068806980470020ED
:1015500070BD000020000020005000409C000020D2
:101560002800002010B50E4C0E4A20681268C17881
:1015700092694079904721688A7A22B118B908792E
:1015800008B9887808B1022010BD07480068C06813
:10159000804720684179C172C1780173002010BD75
:1015A000200000202400002028000020F8B52B494E
:1015B000002000900A682A4B2A4C92B203EB800567
:1015C000D5F8005CADB244F82050401C0828F5D393
:1015D00042F48060086040F00100086020F00105DE
:1015E0000D601E4A121D10684005FCD54FF6FF30F5
:1015F0001060002054F8206003EB8007B6B2C7F8F3
:10160000006C401C0828F5D345F008000860086805
:1016100080B240F004000860134B1868009018680E
:1016200020F0030040F0010018601048046844F006
:10163000040404601468E40401D430BF09E04EF6E9
:10164000FF7414600A6892B222F008020A600099DE
:101650001960016821F004010160F8BD405C0040A0
:10166000005000402C0200200070004010ED00E00F
:101670004FF0E0210428086903D020F0040008613D
:10168000704740F00400FAE7704700000F4810B5BB
:10169000016841F00101016041680D4A114041605B
:1016A00001680C4A11400160016821F48021016049
:1016B000416821F4FE0141604FF41F018160FFF792
:1016C0003BFD05494FF00060086010BD001002406E
:1016D0000000FFF8FFFFF6FE08ED00E070B5154CC6
:1016E00040F22551204600F02BF800280ED020466D
:1016F00000F045F8C2B2104801880B0406D44C042F
:101700004FF0000306D50A2A01D0038070BD41F4D2
:1017100000410DE00D2A09D0C1F30D04074D491C0D
:1017200089B22A550180C729EFD870BD41F48041A4
:10173000018070BD003801401800002048010020E1
:1017400030B501F01F0201240025C1F3421304FA51
:1017500002F2012B0FD0022B0FD0838A4FEA112106
:101760000088134204FA01F400EA040001D000B139
:101770000125284630BD8389F0E7038AEEE780889B
:10178000C0F3080070474FF48020FFF70FB8000047
:1017900006480549022201600A72064A0449C0E966
:1017A00001120868004700001002002020000020FD
:1017B000C40000201401002038B514208DF800006A
:1017C00002208DF8010000208DF8020001248DF820
:1017D00003406846FFF74AFA2A208DF800008DF88A
:1017E00001406846FFF742FA38BD00002DE9F0419C
:1017F0004A4E88B000243068494D68806888494F57
:1018000039880840000401D5FEF75EFD68883988F4
:101810004FF6FF380840400504D5C6F8008042481E
:1018200040688047698838880140890402D54DF6B0
:10183000FF71316069880140C80405D54EF6FF701C
:1018400030600020FFF740FB6888398808400005B9
:101850000BD53648007810B1FFF7A8FE02E0022051
:10186000FFF732FB4FF2FF70306069883888014023
:10187000890505D54FF6FF5131602978491C29703B
:1018800069880140C80545D54FF6FF6030602348A0
:10189000001D00684FF00001000437D56868401C47
:1018A00068606868032832D91C48001F0268120764
:1018B0002DD4026892B2AA601D4A6B4602EB8407DF
:1018C000D7F8007CBFB243F82470641C082CF5D311
:1018D000AC6844F00104AC60AC68A4B20460AC68CD
:1018E00024F00104AC60AC68A4B204603068400528
:1018F000FCD5C6F80080002053F8204002EB80069B
:10190000A4B2C6F8004C401C0828F5D36960072033
:10191000FFF7DAFA08B0BDE8F0810000445C00404F
:10192000580000202C000020C40000203C010020B2
:1019300000500040FFF75ABF10B5044601210420B3
:10194000FFF7B0FA0C49086824B14FF6FD72104059
:10195000086010BD80B240F00200086007480168CE
:1019600021F47F210160016841F44C310160044998
:101970000020C1F8B00110BD405C004004080140E7
:101980000000214205490020086005494FF43F400E
:1019900008800249091F086000207047445C00402D
:1019A0002C00002070B500F07F0514460E46284636
:1019B000FEF7AEFF0146A2B2304600F007F8A1B232
:1019C0002846FFF773FB002070BDFEE7094B10B5FA
:1019D000521C520803EB41010AD000BF10F8013B32
:1019E000521E10F8014B43EA042321F8043BF5D1C1
:1019F00010BD0000006000407047000010B56FF09F
:101A00000400FFF735FE094809490068B0FBF1F012
:101A1000C1B2084801EB41020170C2EBC1114FF69F
:101A2000FF7202EAC101418010BD000000000020E9
:101A300000127A00140000200B49498848434FF0F7
:101A4000E021486100228A61086940F001000861D4
:101A50000869C30701D0C003FAD5086920F0010066
:101A600008618A61704700001400002008B5012158
:101A70000420FFF717FAF020ADF8000048208DF899
:101A8000030069460148FEF7CFFE08BD000801408B
:101A900038B501210820FFF705FA4FF47070ADF852
:101AA000000010208DF803000320064C8DF8020082
:101AB00069462046FEF7B8FE4FF430712046FEF727
:101AC00004FF38BD000C01401CB54FF4A060FFF7C7
:101AD000FFF8FFF793FFFFF7DBFFFFF7C7FF00F00B
:101AE00042F80020184C0090CDF80400D4F8100102
:101AF00010B300208DF80000D4F81401F0B10020DC
:101B000080008DF80300D4F81801C8B15FF0000020
:101B100000EB400040008DF80400D4F81C0188B1AF
:101B20005FF0000000EBC00101EB00108DF8050034
:101B3000684600F00BF8D9E70120DBE70120DFE77A
:101B40000120E5E70120EDE7000021420EB5017913
:101B5000837942798DE80E00C378827841780078E5
:101B6000FFF720F80EBD10B5FFF73AFB4FF41670E3
:101B7000FFF762FF0020FFF7DFFE4FF49670FFF7DC
:101B80005BFF0120FFF7D8FEFFF716FEFFF73CFBD7
:101B9000BDE81040FFF7FCBD12010002000000404C
:101BA0009319031100020102030109022900010136
:101BB00000C03209040000020301010009210001F4
:101BC0000001223F000705810308002007050103EB
:101BD00008002005010906A101050719E029E715FC
:101BE000002501750195088102950175088103950D
:101BF00005750105081901290591029501750391E3
:101C00000395067508150025FF050719002965814C
:101C100000C0040309042603530054004D0069006A
:101C2000630072006F0065006C0065006300740063
:101C300072006F006E006900630073001E035300A2
:101C400054004D003300320020004B006500790045
:101C500042006F0061007200640000007C1C0008FC
:101C600000000020480100006C010008041D00086D
:101C70004801002068070000C80100081184A24A3A
:101C8000040009280102030406070809141A035373
:101C90001254124D1233021D32138B070C140869B3
:101CA0000C040A198D1C63020113981B3308121AC5
:101CB000AA0832291AD308323F1ABC0829AD1A25BE
:101CC0002C13ED0A1B0821081A230413F9091B0819
:101CD000CD101AC1041A61041A55041AA104413224
:101CE0004013121C2A08F51A160832261A3C082A34
:101CF0001E082133201A297C0B18E50B981AFD1CAD
:041D000041599F5155
:040000050800020DE0
:00000001FF
