:020000040800F2
:10000000A80C002001010008A3100008DD0F000863
:10001000A1100008E7010008D72500080000000033
:10002000000000000000000000000000691300084C
:10003000E901000800000000671300086B130008C6
:100040001B0100081B0100081B0100081B01000820
:100050001B0100081B0100081B0100081B01000810
:100060001B0100081B0100081B0100081B01000800
:100070001B0100081B0100081B0100081B010008F0
:100080001B0100081B0100081B0100081B010008E0
:10009000612500081B0100081B0100081B01000866
:1000A0001B0100081B0100081B0100081B010008C0
:1000B0001B0100081B0100081B0100081B010008B0
:1000C0001B0100081B0100081B0100081B010008A0
:1000D0001B0100081B0100081B0100081B01000890
:1000E0001B0100081B0100081B010008DFF80CD0F1
:1000F00000F03CF80048004719260008A80C002032
:100100000648804706480047FEE7FEE7FEE7FEE7B1
:10011000FEE7FEE7FEE7FEE7FEE7FEE7D113000895
:10012000ED00000840EA01039B0703D009E008C97D
:10013000121F08C0042AFAD203E011F8013B00F8AC
:10014000013B521EF9D27047D2B201E000F8012BF8
:10015000491EFBD270470022F6E710B513460A4647
:1001600004461946FFF7F0FF204610BD064C074D28
:1001700006E0E06840F0010394E807009847103477
:10018000AC42F6D3FFF7B6FF7826000898260008A1
:1001900070B58C1810F8015B15F0070301D110F849
:1001A000013B2A1106D110F8012B03E010F8016B76
:1001B00001F8016B5B1EF9D12B0705D40023521EF9
:1001C0000DD401F8013BFAE710F8013BCB1A921C61
:1001D00003E013F8015B01F8015B521EF9D5A1425F
:1001E000D8D3002070BDFEE7704770472DE9F84F67
:1001F000DFF8B891002409F1040A0AF1040B234640
:100200000F270BF1040EC9E00125A5402A40AA42A0
:100210007DD1674ED1F804C0ACEB0608B44532D0AE
:1002200014DCBCF1030F3AD009DCBCF1000F2AD07A
:10023000BCF1010F1CD0BCF1020F31D11DE0BCF1AB
:10024000110F17D0BCF1120F2AD119E0B8F5881F91
:1002500019D006DCB8F5803F15D0B8F5801F1FD146
:1002600011E0B8F5001F0ED0B8F5041F18D10AE050
:10027000CB6815E0CB681B1D12E0CB6808330FE09C
:10028000CB680C330CE08B682BB1012B4FF00803CB
:1002900003D0456104E0042302E0056100E000238F
:1002A000FF2A01D8064601E000F104064FEA840562
:1002B00001D9A5F12005D6F8008007FA05FC28EA47
:1002C0000C0803FA05F548EA0508C6F800804D68F1
:1002D000ED0062D5374DAE6946F00106AE61AD69FD
:1002E00024F0030605F001050095334D06EB050CDF
:1002F000DCF80850A607360F07FA06F825EA0805C5
:10030000DFF8B880404503D14FF0000817E044E023
:10031000DFF8AC80404502D14FF001080FE0DFF874
:10032000A480404502D14FF0020808E0DFF8988031
:10033000404502D14FF0030801E04FF0040808FAED
:1003400006F848EA0508CCF808804D68D9F800603E
:10035000ED034D4601D5164300E096432E604D68EF
:10036000DAF80060AD03554601D5164300E0964328
:100370002E604D68DBF80060ED025D4601D5164346
:1003800000E096432E604D68DEF80060AD027546D1
:1003900001D5164300E096432E60641C0D682A4682
:1003A000E5407FF431AFBDE8F88F00000004014064
:1003B0000000111000100240000001400008014040
:1003C000000C01400010014000140140806808400A
:1003D00000D001207047000001488068704700008D
:1003E0005000002002488168027811448160704703
:1003F00050000020074810B5016841F0100101606D
:10040000032000F075F8002000F006F800F024F852
:10041000002010BD0020024070B50D4D04464FF481
:100420007A712878B1FBF0F00A490968B1FBF0F065
:1004300000F0C0FD48B9102C07D200222146501E02
:1004400000F036F800206C6070BD012070BD000027
:10045000500000205C0000200C4808B5816941F084
:1004600001018161816901F001010091C16941F0DF
:100470008051C161C06900F080500090044841681B
:1004800021F0E06141F00071416008BD00100240C0
:1004900000000140002809DB00F01F02012191400B
:1004A0004009800000F1E020C0F800117047000012
:1004B000F0B40E4B1B680C46C3F30223C3F10705CF
:1004C000042D00D90425191D072901D2002300E0BD
:1004D000DB1E012606FA05F1491E214099409E4087
:1004E000761E16403143F0BC02F076B80CED00E009
:1004F000064900F0070208684FF6FF03184040EA7B
:100500000220034A10430860704700000CED00E031
:100510000000FA0510B50C0605D501F0070100EB47
:100520004110283003E000EB411000F5947099B2BF
:1005300032B1012202730181190C4181002010BDEA
:1005400000220273C180F9E7704700EB4112D0F836
:100550006802D26B01F09FB900EB4112D0F868023B
:10056000D2F83C2101F0FAB970B504460B0601F04F
:10057000070004EB40114FF001024FF0000503D5D6
:1005800081F82920283103E081F8295101F594717F
:10059000087094F82802012808D084F828222068DE
:1005A00001F011FE84F82852002070BD022070BDB9
:1005B00070B5044601F00F006268904201D9012035
:1005C00070BD0B0601F0070004EB40114FF0010273
:1005D0004FF0000503D581F82920283103E081F888
:1005E000295101F594718D70087094F82802012842
:1005F00008D084F82822206801F088FE84F8285268
:10060000002070BD022070BD2DE9F04104460F06A8
:1006100001F0070004EB40114FF001064FF0000518
:1006200003D581F82960283103E081F8295101F5CB
:10063000947108700A61CB704A7802B1C881022BAC
:1006400000D10D7194F82802012809D084F828629D
:10065000206801F083FC284684F82852BDE8F08128
:100660000220FBE770B50C4601F0070500EB4511D1
:10067000C1E94F230022C1F8442181F8292181F8E2
:10068000285101F594716207006801F094FE002082
:1006900070BD70B504460D4601F0070061688842E0
:1006A00001D9012070BD29064FF000064FF001026C
:1006B00005D504EB401181F82920283105E004EB31
:1006C000451181F8296101F594718A70087094F8D8
:1006D0002802012807D084F82822206801F052FE61
:1006E000680702D006E0022070BD04F50C71206896
:1006F00001F00AFE84F82862002070BD70B50C4637
:1007000001F0070500EB4511C1E90F2300224A64FF
:10071000012281F8292001F8285F6207006801F0B2
:100720004AFE002070BD10B50446006801F01EFFAF
:10073000000402D5204600F0B5FC206801F016FF49
:1007400040050CD5206830F8441F21F480610180F9
:10075000204600F0FBF80021204600F012F9206846
:1007600001F004FF400405D5206830F8441F21F44F
:1007700080410180206801F0F9FE800405D52068E1
:1007800030F8441F21F400510180206801F0EEFE92
:10079000C00414D5206830F8401F21F00401018006
:1007A000206830F8401F21F008010180204600F049
:1007B000E0F8206830F8441F21F48051018020685F
:1007C00001F0D4FE00051FD5206830F8401F41F02D
:1007D00008010180206830F8441F21F40061018085
:1007E000206830F8401F41F004010180206801F0CA
:1007F000BDFEC00405D5206830F8441F21F48051A7
:100800000180204600F0F2F8206801F0AFFE80057C
:1008100008D5206830F8441F21F40071018020467B
:1008200000F0ABF8206801F0A1FEC00505D52068F6
:1008300030F8441F21F48071018010BD2DE9F04192
:1008400086B0040004D094F82902002520B108E005
:10085000012006B0BDE8F08184F82852204600F05F
:1008600057F8032084F82902206801F046FD04F1BE
:100870001001142288466846FFF754FC94E80F00E4
:1008800001F09FFC0227B0BB0021206801F088FE28
:10089000002001260DE000BF04EB401181F8296023
:1008A00001F8280FC881CD700D614D61401CC0B2A8
:1008B0008D6161688142EFD800200FE004EB4011A8
:1008C00081F8295181F8280181F82B51C1F838515C
:1008D000C1F83C51401CC0B2C1F84051616881422E
:1008E000ECD8142241466846FFF71CFC94E80F0040
:1008F00001F0F4FC10B184F82972A9E784F82450BF
:1009000084F82962206801F0E7FC0020A1E70000DC
:1009100008B500680B49884212D10B48C16941F4FF
:100920000001C161C069002200F40000009011467E
:100930001420FFF7BDFDBDE808401420FFF7AABD55
:1009400008BD0000005C00400010024070B5044685
:1009500080680125022801D0FFF747FC2946D4F81A
:10096000680201F0D2F8D4F86802BDE8704001F0E6
:100970008EB8D0F8680201F0B2B8D0F8680201F081
:10098000B8B810B5044690F8280201280BD0012011
:1009900084F8280284F82410206801F003FE002067
:1009A00084F8280210BD022010BDD0F8682200F59E
:1009B0000C71104601F0B5B810B5044690F8280245
:1009C000012810D0012084F8280201462046FFF7B4
:1009D000BBFD206801F07EFC206801F0BAFD00201C
:1009E00084F8280210BD022010BD000010B5044696
:1009F000D0F8680201F0D4F8A069002804D00348B8
:100A0000016841F00601016010BD000010ED00E03A
:100A10002DE9F84305460078354CC00754D0E0690D
:100A20000026C00008D4E06940F08050E061E06931
:100A3000012600F0805000902E480168C90512D4AC
:100A40000168804641F480710160FFF7C5FC0746EC
:100A500005E000BFFFF7C0FCC01B642823D8D8F80E
:100A60000000C005F6D5206A10F4407021D0A98896
:100A700001F4407181421CD0206A1F49012220F4F8
:100A800040700A6000220A602062C00711D0FFF7A0
:100A9000A3FC074641F2883808E000BFFFF79CFC42
:100AA000C11B414502D90320BDE8F883206A8007B5
:100AB000F4D5206A696820F44070084320621EB1B2
:100AC000E06920F08050E0612878800705D56068F3
:100AD000A96820F44040084360602878C00605D526
:100AE0006068E96820F48000084360600020DBE76C
:100AF0000010024000700040400442422DE9F047DF
:100B00000F46050061D0434E306800F00700B84240
:100B100009D2306820F0070038433060306800F0B8
:100B20000700B84251D128683B4C810712D54007D5
:100B300003D5606840F4E06060602878000703D562
:100B4000606840F4605060606068A96820F0F00060
:100B5000084360602878C00728D06868012810D052
:100B60002168022810D0890700292EDA616821F057
:100B7000030101436160FFF72FFC804641F2883991
:100B80000DE021688903EFE78901EDE7FFF724FC19
:100B9000A0EB0801494502D90320BDE8F087606851
:100BA000696800F00C00B0EB810FEFD1306800F005
:100BB0000700B8420BD9306820F007003843306096
:100BC000306800F00700B84201D00120E5E728783E
:100BD000400705D56068E96820F4E060084360607C
:100BE0002878000706D56068296920F4605040EA3B
:100BF000C100606000F018F86168084AC1F3031191
:100C0000515CC8400649086006480068FFF704FCCC
:100C10000020C2E7002002400010024068260008C1
:100C20005C0000205400002012A185B00FC98DE89F
:100C30000F0014A0144A006804905168134801F092
:100C40000C03042B10D0082B0ED1C1F38343C9032E
:100C50001DF803000AD5516804AAC1F34041515C54
:100C60000A4A5043B0FBF1F005B0704708494843C9
:100C7000FAE7000002030405060708090A0B0C0D39
:100C80000E0F1010010200000010024000127A0046
:100C900000093D002DE9F84F040070D02078C04DC8
:100CA000C00749D06868C0F38100012807D0686890
:100CB000C0F38100022809D16868C00306D52868FE
:100CC000800339D560680028E7D035E06068B0F56A
:100CD000803F0BD010B1B0F5A02F11D0286820F4C0
:100CE00080302860286820F4802002E0286840F4E2
:100CF00080302860606890B1FFF76EFB06460AE01E
:100D0000286840F480202860F0E700BFFFF764FB0C
:100D1000801B642873D828688003F7D50CE0FFF7A0
:100D20005BFB064605E000BFFFF756FB801B64280F
:100D3000F0D828688003F7D420789A4E80074FF0C7
:100D400001094FF0000839D5686810F00C0F07D082
:100D50006868C0F38100022809D16868C00306D41E
:100D60002868800714D52069012808D110E020697F
:100D7000B0B1C6F80090FFF72FFB074605E00AE187
:100D8000FFF72AFBC01B0228C4D828688007F7D5C4
:100D90002868616920F0F80040EAC10028600DE091
:100DA000C6F80080FFF718FB074604E0FFF714FBC6
:100DB000C01B022823D828688007F7D420780007B2
:100DC0002CD57948A169D9B1C0F80090FFF704FB90
:100DD000074604E0FFF700FBC01B02280FD8686A33
:100DE0008007F7D571484FF4FA510068B0FBF1F075
:100DF000009000BF0098411E0091FAD20EE080E002
:100E0000C0F80080FFF7E8FA074604E0FFF7E4FACD
:100E1000C01B022875D8686A8007F7D4207840077D
:100E200060D5E8690027C00008D4E86940F0805028
:100E3000E861E869012700F0805000905C48016893
:100E4000C90513D40168834641F480710160FFF73E
:100E5000C3FA824606E000BFFFF7BEFAA0EB0A0025
:100E600064284ED8DBF80000C005F5D5E0680128FD
:100E70000AD008B1052813D0286A20F001002862A2
:100E8000286A20F0040002E0286A40F0010028628D
:100E9000E06841F2883B98B1FFF79EFA82460BE08A
:100EA000286A40F004002862EEE700BFFFF794FADA
:100EB000A0EB0A0159455AD8286A8007F6D50CE0FC
:100EC000FFF78AFA824605E0FFF786FAA0EB0A01EF
:100ED00059454CD8286A8007F6D41FB1E86920F03C
:100EE0008050E861E06988B36968C1F38101022933
:100EF00044D00228C6F8608004D0FFF76DFA04469B
:100F000038E034E0FFF768FA074604E0FFF764FAD8
:100F1000C01B02282BD828688001F7D4206AB0F5BE
:100F2000803F05D16868A16820F4003008436860FC
:100F3000D4E908010843696821F474110843686022
:100F4000C6F86090FFF748FA044606E025E000BFC7
:100F5000FFF742FA001B022809D828688001F7D55C
:100F60001BE000BFFFF738FA001B022802D903205C
:100F7000BDE8F88F28688001F4D40EE00128F7D08E
:100F80006868226A00F48031914204D1616A00F4F9
:100F90007010884201D00120EAE70020E8E7000055
:100FA0000010024000004242800442425C000020E7
:100FB0000070004010B5401EB0F1807F01D30120C9
:100FC00010BD4FF0E02460610F21601701F004FBB9
:100FD0000020A06107202061002010BDFEE7000076
:100FE000F0B500230A24302537261F4611E000BF44
:100FF000B4EB107F02D905EB107C01E006EB107C0E
:1010000001F813C001EB430C00015B1C8CF801706C
:10101000DBB29342ECD3F0BD00B585B00020019067
:1010200003900D48816941F020018161816901F0DF
:1010300020010491816941F0040181618069694660
:1010400000F0040004900220009001200290034868
:10105000FFF7CCF805B000BD0010024000080140C9
:1010600010B500220B490C4800F0EEFB08B1FFF769
:10107000BCF80A49084800F0B9FD08B1FFF7B5F817
:10108000054800F009FE002803D0BDE81040FFF736
:10109000ACB810BD000000206001002064000020FA
:1010A000FEE770472DE9F05F044648F60F7B4FF0EE
:1010B000020A4FF480684AE1B0F8441011F00F06BC
:1010C00029D030F82670390479D530F8261040F64A
:1010D0008F72114041F0800120F8261004EB461574
:1010E00095F8340105F594750028206868D02978B2
:1010F00030F8212052047DD5B0F850200AEBC10110
:101100000A4408EB4201415AC1F309015FEA0109AF
:1011100071D02A89D2E0C9062DD4018801EA0B01D9
:1011200041F400410180206804F12805B0F8502006
:101130002B780AEBC3010A4408EB4201405AC0F382
:1011400009006064E16B0844E06300212046FFF77A
:10115000FCF994F824000028ADD0A8690028AAD191
:1011600094F82400216840F08000A1F84C00002091
:1011700084F82400EBE0018804F594750A0520D575
:10118000B0F850202B78062101EBC3010A4408EB8C
:101190004201405A04F50C71C0F30903EB61EA887F
:1011A000206801F0E7F92068018840F68F7211404D
:1011B00041F0800101802046FFF7F7FBC7E0A2E085
:1011C00058E0090455D5018840F68F72114041F06E
:1011D000800101802168B1F850202B78062000EBB7
:1011E000C300024408EB4200085A83059B0DEB61E3
:1011F00010D001E053E065E0696959B1EA882068E0
:1012000001F0B8F9E969686908446861002120467D
:10121000FFF7A2F92068B0F850100844296900F2DD
:101220000C4051B13E2910D84A08C90700D0521CC1
:101230004FF6FF7101EA82210FE0018821F4F841A5
:101240000180018841F4004107E04A09C90600D144
:10125000521E4FF4004141EA82210180206801883A
:101260004BF68F72114081F4405148F280021143D5
:1012700001806CE0B0F850202B78062101EBC3010F
:101280000A4408EB4201415AC1F309015FEA01092E
:1012900024D0EA884B46696901F06CF91EE0B0F889
:1012A0005030062202EBC1015A1808EB4201415AA4
:1012B000C1F309015FEA010904D06A894B466969F3
:1012C00001F058F92878226832F8201048F68F7318
:1012D000194048F2C003194322F82010E869484435
:1012E000E861686900EB09026A61AB6913B12869BA
:1012F000484504D929782046FFF72EF903E02978DC
:101300002046FFF7AFF9380621D5216804EB4610D7
:1013100031F8262002EA0B0242F4004221F826208E
:101320002168B1F8505010F8282F0AEBC2022A4465
:1013300008EB4202895AC1F30901C16142690A44BA
:10134000426101788369204653B1FFF7D7F92068DD
:10135000B0F8441009043FF5AFAE0020BDE8F09F9F
:10136000FFF7F3F8F3E770477047FFF73BB830B586
:1013700093B028216846FEF7EEFE14210AA8FEF776
:10138000EAFE002401200F94109411940104129499
:101390008DE8130004904FF4E010CDE90810022509
:1013A00007956846FFF776FC0F20CDE90A0568022D
:1013B000CDE90C4002210AA80E94FFF79FFB1020F4
:1013C0000F9012940FA8FFF723FB13B030BD00005D
:1013D0000D48016841F00101016041680B4A11406C
:1013E000416001680A4A11400160016821F48021CE
:1013F0000160416821F4FE0141604FF41F018160EA
:101400000449C00308607047001002400000FFF864
:10141000FFFFF6FE08ED00E010B5D0F8B4225268E8
:101420009047002010BD134610B50A46002100F079
:1014300025FB002010BD134610B50A46002100F020
:10144000B8FB002010BD10B50446802100F096FBCB
:101450002046BDE81040002100F090BB10B50521EA
:101460000023C0F894121A46194600F007FB00202A
:1014700010BD10B50223C261C0F894320262134657
:101480000A46002100F095FB002010BD10B5042194
:101490000023C0F894121A46194600F08AFB002077
:1014A00010BD000010B50A46024903A000F0E2F8A2
:1014B000004810BDA406002048494420436F6E66D2
:1014C0006967000012200880004870472000002053
:1014D00010B50A46024903A000F0CCF8004810BD40
:1014E000A406002048494420496E74657266616311
:1014F0006500000004200880004870471C000020A0
:1015000010B50A46024903A000F0B4F8004810BD27
:10151000A406002053544D6963726F656C65637453
:10152000726F6E696373000010B50A46024903A02A
:1015300000F0A0F8004810BDA406002053544D331D
:10154000322048756D616E20696E746572666163E4
:101550006500000010B51A2008800A480168001DC7
:101560000468001D0068081809D008220649FFF722
:1015700037FD0549042210312046FFF731FD0248AE
:10158000801E10BDE8F7FF1F36000020F8B50446A6
:101590000020ADF8000048880D46010A082948D20D
:1015A000DFE801F04704091747473C45D4F8B0127B
:1015B000207C0A6819E0207C02260028D4F8B402B6
:1015C00005D0C16A68468847014646703EE0816A98
:1015D000F8E7C0B206282CD2DFE800F0030A1014A6
:1015E000181CD4F8B002426805E0694690471CE038
:1015F000D4F8B0028268E2B1207CF6E7D4F8B002F9
:10160000C268F8E7D4F8B0020269F4E7D4F8B0028F
:101610004269F0E7D4F8B0028269ECE7207C40B977
:10162000D4F8B402416B6846884701460EE0207C3E
:1016300020B129462046FFF706FFF8BDD4F8B402D2
:10164000016B68468847014607204870BDF80000D6
:1016500048B1EA8852B1824200D90246ADF8002072
:101660002046FFF706FFE8880028E6D12046FFF76E
:101670000DFFF8BD70B5002300281ED004460025DC
:1016800002E06D1CEDB2641C2678002EF9D1022414
:1016900004EB450414801278CA545B1C0322CA541C
:1016A00000245B1C06E0CA545B1CDAB28C54521C4A
:1016B000D3B2401C0278002AF5D170BD01004FF072
:1016C000000004D0012901D0022901D00220704776
:1016D00001207047D0F8B802002101730846704716
:1016E00070B50446812100F0CDF80025E562D4F8FC
:1016F000B80218B100F02DFCC4F8B852002070BD3B
:101700000A21018000487047140100202221018035
:10171000004870479C00002022210180004870474B
:10172000C00000202221018000487047E400002012
:1017300010B5044604230322812100F093F901200F
:10174000E062102000F006FCC4F8B80218B10021D5
:101750000173084610BD022010BD10B5134690F865
:101760009C42D0F8B822032C07D1147B2CB9012459
:1017700014730A46812100F01CFA002010BD0000FD
:1017800038B503460022D0F8B802ADF80020144660
:101790000A7812F0600216D0202A4AD14A78022A2A
:1017A0000ED0032A06D00A2A06D00B2A41D1897806
:1017B000016042E001222BE04988090A41603CE0D7
:1017C0000122011D25E04A7832B1062A0BD00A2AEF
:1017D00023D00B2A2DD128E093F89C02032828D18E
:1017E0000222694615E048882222B2EB102F05D16B
:1017F000CA883F2A00D93F22124809E02122B2EBD1
:10180000102F16D10F48CA881838092A00D9092282
:1018100001461846FFF72DFE0FE093F89C22032A9D
:1018200007D1012200F10801F3E793F89C22032A73
:1018300005D01846FFF707FE0224204638BD8978F8
:101840008160FAE72001002010B580B1D0F8B432F1
:1018500013B10023C0F8B43209B1C0F8B0120121AD
:1018600080F89C12027000F0BBF8002010BD02202E
:1018700010BD10B5D0F8C002FEF79AFEBDE81040CA
:10188000FFF71CBF10B5D0F8C002FEF76DFEBDE833
:101890001040FFF713BF2DE9F0411746044651B140
:1018A000D4F8B40242691AB194F89C02032851D0CA
:1018B0000220BDE8F081D4F89432002504F1140030
:1018C000022B03D0042B3AD0C3B33CE0D0E903632E
:1018D0009E4207D9F11AC1608AB239462046FFF705
:1018E000AAFD12E08068B0FBF3F103FB110199B986
:1018F000984211D3D4F8981288420DD20022114692
:101900002046FFF798FDC4F8985200231A4619465E
:10191000204600F0B3F816E0D4F8B402C16829B14B
:1019200094F89C02032801D1204688478021204654
:1019300000F024F92046FFF791FD04E0FFE7802145
:10194000204600F01BF994F8A002012804D184F885
:10195000A05201E0204690470020AAE770B5154646
:10196000044649B1D4F8B40282691AB194F89C02D1
:10197000032830D0022070BDD4F8941204F5AA7068
:10198000032902D005291ED027E0D0E903218A428D
:101990000BD9531AC3600846834200D303469AB258
:1019A00029462046FFF73FFD17E0D4F8B40201694D
:1019B00029B194F89C02032801D12046884720468B
:1019C000FFF764FD09E000200146C4F894022046B8
:1019D00000F0D4F801E020469047002070BD0000E0
:1019E00010B517490446C1F86802C0F8C01215487E
:1019F0000860082048600220886000208861C86173
:101A000008620846FEF71AFF08B1FEF7EEFB002257
:101A1000D4F8C0021823114604F53074FEF77AFD9D
:101A20005823002280212068FEF774FD4FF4807354
:101A3000002281212068FEF76DFD002010BD00000E
:101A400038040020005C00400A06D0F8C00201F013
:101A50007F0100EB411002D590F82A00704790F802
:101A60002A01704710B51C461346D0F8C002224622
:101A7000FEF7CAFDBDE81040FFF720BE10B5D0F854
:101A8000C002FEF7EFFDBDE81040FFF717BE70B5CE
:101A90000022044640231146FFF7E4FF40260125BB
:101AA000C4F864613346002280212046C4F85851AE
:101AB000FFF7D8FF6662A56184F89C520020C4F845
:101AC00094026060C4F8A402D4F8B80228B1D4F833
:101AD000B4020021426820469047002070BD90F873
:101AE0009C12042903D190F89D1280F89C120020CA
:101AF000704710B590F89C12032904D1D0F8B412A5
:101B0000C96901B18847002010BD017400207047E9
:101B100010B5D0F8C002FEF734FFBDE81040FFF763
:101B2000CDBD70B5044600F52A70054600F04AF8B0
:101B30000120C4F89402B4F8AE02C4F8980294F8F4
:101B4000A80210F01F010AD001290DD0022910D0DF
:101B500000F08001204600F011F8002070BD2946F9
:101B6000204600F09EF8F8E72946204600F0CAF922
:101B7000F3E72946204600F01DF9EEE710B5D0F84E
:101B8000C002FEF786FDBDE81040FFF797BD10B517
:101B9000D0F8C002FEF710FFBDE81040FFF78EBD81
:101BA00090F89C1280F89D12042180F89C1200206D
:101BB000704710B5D0F8C002FEF7A0FDBDE8104098
:101BC000FFF77CBD0A7802704A7842708A78CB7839
:101BD00002EB032242800A794B7902EB03228280D6
:101BE0008A79C97902EB0121C18070470246002041
:101BF00011B1C2F8B41270470220704710B5D0F886
:101C0000B42202241AB11268904700B90024204679
:101C100010BD000070B50E461E4D8978044629702F
:101C2000012931D894F89C0202280BD003280FD048
:101C300031462046FFF707FC29782046BDE8704072
:101C4000FFF7EABBD9B10320616084F89C0209E088
:101C500071B16068884212D0C1B22046FFF7DCFB48
:101C6000297861602046FFF7C9FF02280CD006E002
:101C7000022084F89C0220466160FFF7CDFB2046DD
:101C8000BDE87040FFF702BC31462046BDE8704019
:101C9000FFF7D9BB6000002010B5FFF778FF0020E8
:101CA00010BD2DE9F0410A78002612F0600208D03C
:101CB000202A01D0402A70D1D0F8B42292689047EF
:101CC0006DE04B78002201250A2B66D2DFE803F095
:101CD000405D6557650805652C29FFF757FC5EE0F8
:101CE00004468888D8B9C888C8B94888802816D2D8
:101CF00000F07F0794F89C02032810D084F89E72AD
:101D000039462046FFF704FF2046FFF7BFFB1FB10F
:101D1000022084F89C0242E084F89C523FE0204676
:101D20003BE0FFF777FF3AE0CB88012B35D190F805
:101D30009C32012B04D0022B02D0032B2DD104E0C6
:101D40008260012200F1080116E00122011D13E06A
:101D500090F89C22012A03D0022A01D0032A1CD128
:101D6000CA88022A19D1C560D0F8A41209B103218A
:101D7000C160022200F10C01FFF77BFB0FE04988F4
:101D800001290CD1C0F8A45211E090F89C32012B2B
:101D900008D0022B06D0032B04D0FFF754FB3046AB
:101DA000BDE8F08149880129F9D1C0F8A422FFF7E4
:101DB0006DFBF4E72DE9F0410A4604461078002750
:101DC000097910F060030AD0202B01D0402B50D1AC
:101DD000D4F8B40211468368204698478FE0C0F3D8
:101DE0004110012806D05078D0B301282AD003280A
:101DF0003FD107E0D4F8B402114683682046BDE81D
:101E0000F041184794F89C02022802D0032872D1AE
:101E10000AE071B380296ED02046FFF7AFFE802123
:101E20002046FFF7ABFE6AE0508838B931B180290F
:101E300004D0D08810B92046FFF7A0FE2046FFF757
:101E400025FB5CE094F89C020228E2D0032852D1E2
:101E5000508898BB4806F1D02046FFF70AFDEDE711
:101E6000FFE794F89C020026022803D0032842D101
:101E700012E040E009B180293DD1080601F07F0061
:101E800000EB800004EB800101D5143101E001F585
:101E9000AA7102220E602AE0080601F00F0000EB92
:101EA000800004EB80000AD5806920B301F07F0038
:101EB00000EB800004EB800514350BE01FE0D0F848
:101EC0005801C0B101F07F0000EB800004EB8005F9
:101ED00005F5AA7541B1802906D02046FFF7B4FD6B
:101EE00010B10120286000E02E6002222946204621
:101EF000FFF7BFFA03E011462046FFF7A4FA384681
:101F0000BDE8F08170B5054608780C4610F0600019
:101F100003D0202801D0402816D195F89C02012832
:101F200003D0022801D003280ED1207901280BD834
:101F3000D5F8B402826828469047E188014306D16B
:101F40002846FFF7A3FA02E02846FFF77CFA0020B4
:101F500070BD704700487047240400202DE9F04709
:101F60000C784FF0000C30F8243048F68F121340F4
:101F7000CA78002A7DD0012A7CD0022A03D0032A05
:101F800079D04FF0010C48F28002134320F824303E
:101F90000D7830F8254048F68F731C402C431443CD
:101FA00020F825400F7B48F6BF744BF68F7948F236
:101FB000C0054CF28006EFB391F80080C24630F8BD
:101FC000287048F280181F4047EA080720F82A7056
:101FD000B0F8507091F80080074407EB0817B1F88B
:101FE000088028F00108A7F80084B0F8507091F834
:101FF0000080074407EB0817B1F80A8028F00108B1
:10200000A7F808844F7891F80080002F30F82870E6
:102010004FEA47477ED0002F05DA30F828701F407E
:10202000374320F828700F7830F827805FEA486837
:1020300009D500E033E030F8278008EA030848EAD1
:10204000050820F827800F7830F827501D403543C9
:1020500020F82750CB780D78012B30F8253003EA93
:10206000040301D083F02003134320F825300B78BC
:1020700002E00BE010E00CE030F8231001EA090167
:10208000114320F823106046BDE8F08743F4007345
:1020900079E743F4C06376E743F4806373E74F78EE
:1020A00027B3B0F850600F78064406EB0716CF88C8
:1020B00027F00107A6F800740F7830F8276076063D
:1020C00005D530F827601E402E4320F82760CB78D6
:1020D000012B06D00B7830F82310214081F020012D
:1020E000CEE70B7830F823102140C9E7B0F8504014
:1020F0000D78044404EB0514CD8825F00105A4F8FF
:102100000854B0F850400D78044404EB051404F270
:102110000C4400E030E00D6955B13E2D10D86F0839
:10212000ED0700D07F1C4FF6FF7505EA87250FE00D
:10213000258825F4F8452580258845F4004507E0E5
:102140006F09ED0600D17F1E4FF4004545EA872553
:1021500025800D7830F82540640405D530F82540F9
:102160001C40344320F825400B7830F8231001EA56
:10217000090181F4405183E7002F05DA30F8287017
:102180001F40374320F828700E7830F826707F06FD
:1021900005D530F826701F402F4320F826700F78A1
:1021A00030F827601E402E4320F827600D7830F865
:1021B000253003EA090383F44053134320F8253004
:1021C0008FE7002070472DE9F04391F80C804F789D
:1021D0000A7848F6BF7C4BF68F7948F2800348F2C4
:1021E000C0054CF2800648F68F74B8F1000F28D075
:1021F000002F30F822704FEA474748D0002F05DA09
:1022000030F822702740374320F822700A7830F8DF
:1022100022707F0605D530F8227027402F4320F822
:1022200022700D7830F825202240324320F82520F6
:102230000C7830F8242002EA0C021A4320F82420FB
:102240001AE07FB130F82260760605D530F82260BA
:1022500026402E4320F822600A7830F8221001EA46
:102260000C010EE030F822506D0405D530F82250F4
:102270002540354320F822500A7830F8221001EA30
:102280000901194320F822100020BDE8F083002F37
:1022900005DA30F822702740374320F822700A7898
:1022A00030F82260760605D530F8226026402E43AD
:1022B00020F822600E7830F8262022402A4320F8A9
:1022C00026200C7830F8242002EA09021A4320F86C
:1022D0002420C1E7002070470020704700B501218D
:1022E000A0F840100021A0F84010A0F84410A0F879
:1022F000501000F02EF9002000BD30F8401F21F4EE
:102300003F410180002070470020704730B50A7BB4
:10231000B2BB4A7848F68F7548F28004C2B10B7898
:1023200030F82320520607D530F823202A4048F2FF
:10233000C0052A4320F82320CA78012A20D00A7831
:1023400030F8221048F6BF73194081F0200114E0E4
:102350000A7830F822305B0407D530F822302B4061
:102360004CF280052B4320F822300A7830F82210F6
:102370004BF68F73194081F44051214320F822100D
:10238000002030BD10B54A780978002A48F2800351
:1023900030F8212005D048F6BF74224082F01002A8
:1023A00004E04BF68F74224082F480521A4320F8E6
:1023B0002120002010BDF0B50E46054691F801C061
:1023C0000022097B3469B06948F28007BCF1010F33
:1023D00004D0A0424FD9001BB0614EE0A04202D908
:1023E000001BB06101E00446B26169B1307835F894
:1023F00020104906B5F85010294401EB001012D501
:10240000A0F80C44728911E0A3B2F28828467169E1
:1024100000F0CEF8B5F850003178284400EB0110F8
:10242000A0F804441EE0A0F804443289A3B2284670
:10243000716900F0BDF8707848F68F7110B101280D
:1024400007D00FE0327835F82200084048F2C0018A
:1024500005E0327835F8220008404CF2800108434C
:1024600025F82200317835F8210048F6BF72104077
:1024700080F0300068E00446B2614FF6FF724FF41E
:10248000004381B3BCF1000F15D027E0018821F48F
:10249000F8410180018841F400410AE03E2C3ED819
:1024A0006108E30700D0491C02EA812101E043EA08
:1024B0008121018040E0B5F850003178284400EBDC
:1024C000011000F204407CB13E2C15D861085FEA8F
:1024D000C47C00D0491C02EA81210180707810B1CF
:1024E000012821D028E00FE0018821F4F841018083
:1024F000018841F40041F0E761095FEAC46C00D152
:10250000491E43EA8121E8E7B5F8500031782844B4
:1025100000EB011000F20C40002CBFD1B6E76109BE
:10252000E206C4D1491EC2E7B5F850104819317807
:1025300000EB0110A0F80C44317835F821004BF67F
:102540008F72104080F44050384325F8210000205D
:10255000F0BD30F8401F41F43F410180002070473A
:102560000148FEF7E0B8000038040020B0F844004D
:102570007047000010B500EB42005C0800F5806079
:1025800009D000BF30F8042B01F8012B120A01F822
:10259000012B641EF6D1DA0701D00088087010BD47
:1025A0000020704711B98021A0F84C10002070471E
:1025B00010B55B1C00EB42005B0800F5806009D0A1
:1025C00011F8012B11F8014B42EA042220F8042BE8
:1025D0005B1EF5D110BDFEE70907090E002804DBDC
:1025E00000F1E02080F80014704700F00F0000F1C7
:1025F000E02080F8141D704702E008C8121F08C1CF
:10260000002AFAD170477047002001E001C1121F73
:10261000002AFBD1704700001FB5FDF7EBFEFEF767
:10262000A6FEFEF7F9FCFEF71BFD00200AA10090B4
:102630000190D1E900010A4CCDE9020102212046B6
:10264000FDF7C4FE4FF0080220B169460548FFF7C8
:1026500084F8F3E702A9F9E700002D00000000006C
:1026600000080140600100200000000000000000A0
:10267000010203040607080998260008000000204C
:10268000600100009001000864270008600100203C
:10269000480B00000826000813C5141B08F5041396
:1026A00001151B0829041A55041AA5101AD104177C
:1026B0000403090412013202164083042B57260238
:1026C00001020301031A1A03191F1182105324F483
:1026D0001331171408E1161B088108811AD510015F
:1026E000101A19201A0D041A25041A0104140902DB
:1026F000221301011DE0320904591A030B150921A7
:1027000011011401223F160705810304220AE9245E
:102710006A02245A4A240A2107242948695A314B5B
:102720000A06F429CC100E05010906A101050719B6
:10273000E029E715281A2501750195088102950100
:102740007508810395057501050819012905911280
:10275000180803910395067508261AFF30111429ED
:04276000658112C0BD
:04000005080000ED02
:00000001FF
